S0180000736F632D62746D6573682D7377697463682E73333728
S214000000000001207D0F0000790F0000790F00002E
S214000010790F0000790F0000790F0000790F0000BB
S214000020790F0000790F0000790F0000790F0000AB
S214000030790F0000790F0000790F0000790F00009B
S214000040F1140000790F0000790F0000790F00000E
S214000050790F0000790F0000790F0000790F00007B
S214000060790F0000AD1000008D110000F1050000B2
S214000070B9420000790F0000790F0000790F0000E8
S214000080790F0000790F0000AD110000790F000015
S214000090790F0000790F0000790F0000790F00003B
S2140000A0790F0000790F0000790F0000790F00002B
S2140000B0790F0000790F0000790F0000790F00001B
S2140000C0790F0000790F0000790F0000790F00000B
S2140000D0790F0000790F0000790F0000790F0000FB
S2140000E0790F0000790F0000790F0000790F0000EB
S2140000F0790F0000790F0000790F000010B5054C4D
S214000100237833B9044B13B10448AFF300800123BE
S214000110237010BD001100200000000098E70400C6
S214000120084B10B51BB108480849AFF300800848D3
S214000130036803B910BD074B002BFBD0BDE8104089
S214000140184700BF0000000098E7040004110020D4
S2140001504C10002000000000154B002B08BF134B6E
S2140001609D46A3F5803A00218B460F461348144A55
S214000170121A43F00DFF0F4B002B00D098470E4B82
S214000180002B00D098470020002104000D000D48E9
S214000190002802D00C4846F0CDFF43F0FFFA2000BE
S2140001A0290000F091FA43F0E9FA00BF00000800C9
S2140001B000000120000000000000000000110020E8
S2140001C0B06C002035710400918304002DE9F043E3
S2140001D0214D0378214F83B0014600260A2B0C469A
S2140001E009D00BB907E01BB114F8013F0A2BFAD16E
S2140001F0621AD2B242B923780A2B24D02146002BA9
S214000200ECD103B0BDE8F08395F82690286895F801
S214000210253095F824C097F800E0B0F800800E4826
S214000220019612FB0CFC4B4403FB0E935FFA8CFE0C
S214000230DBB2CEEB080E0093CEF3470303F024FCAC
S21400024023780A2BDAD13A78637801323A70611C47
S214000250002BC3D1D5E700BF201100204C11002091
S21400026038B5054603F0DCFD00B1FEE703F0EEF915
S21400027000B1FEE7084C204603F0B4FA034600B18E
S214000280FEE76FF07F4220460449A360626003F0F9
S21400029043FC034B1D6038BD2011002000A2040063
S2140002A01C11002010B50446084803F0C7FA084A97
S2140002B0084B106800221A70FFF788FF2046FFF7E9
S2140002C085FFBDE8104003F0FDB900BF20110020F7
S2140002D01C1100204C110020062805D0072800D04D
S2140002E07047022006F026B8012006F023B800BFAB
S2140002F070B50F4C0346B0B0013904EB411030AD79
S214000300194643F039FF002305F8C03D04F1C00646
S2140003102146284643F056FF20342846054943F038
S21400032051FFB442F4D12846FFF7BCFF30B070BD91
S21400033058110020F09F040070B582B000F00AFF4C
S21400034001240026062123460A460096019405202D
S21400035002F07EFD094D009607210A4623460194C9
S214000360052002F075FD2946062000F001FF29460B
S214000370072002B0BDE8704000F0FABED9020000C7
S2140003802DE9F041294B2A4F1B7800229B1A86B094
S21400039018BF01238DF805308DF804203B7810B97E
S2140003A00133DBB23B70234E23483278046823497E
S2140003B0DFF898E009882372013A02EB820202EB2A
S2140003C0820255000023012241F20100ADB2A08056
S2140003D0E1806372A372E3722373E373237463741E
S2140003E0A2740DF10501A4F80D5004F11300DEF817
S2140003F0008043F0CFFC2146114841F8040B05F07D
S2140004003FFFB8F8041051B10E4843F013FE33789E
S214000410084A0BB1013B137006B0BDE8F08139788D
S21400042009482A4643F006FEF1E700BF24120020E2
S2140004305711002018120020E41D00203000002074
S21400044020101E02A09D0400D89D0400E81D002078
S21400045038B5134C01461348217043F0EBFD237862
S214000460CBB9114843F0E6FD104B032200201A706A
S214000470FFF786FF0E4B0F481B6840F2666519466D
S2140004800A2400225D601C725A72BDE8384041F8AA
S214000490040B05F0F5BE084843F0CCFDE4E700BFCA
S2140004A024120020009E0400209E04001812002043
S2140004B0E41D002020060C00189E04000020704753
S2140004C008B50021C022064843F062FD0548FFF744
S2140004D0C7FE05480221BDE80840FFF709BF00BF78
S2140004E058110020289E0400549E040030B587B0A2
S2140004F0427803781A4901A843F03EFE01A919483C
S21400050043F098FD01A844F057F8C4B2FB2C0DD96F
S214000510154B1B684FF4C5719980144843F08AFD4B
S21400052001A80121FFF7E4FE07B030BD104D286892
S21400053000230322C3800472828001A92246093068
S21400054043F028FC0B4829682402204441F8040B99
S21400055005F096FE044B1B6899880029E0D0DCE77E
S214000560649E0400789E0400E81D00208C9E040013
S214000570E41D002020050A0238B51548154C43F046
S21400058059FD15480221FFF7B3FE144B1B78FF2BCD
S21400059007D0226812481371114641F8040B05F083
S2140005A06FFE21680F4841F8040B05F069FE2368CA
S2140005B00D4819464FF480354D2401225D601C72AB
S2140005C05A72BDE8384041F8040B05F059BE00BF2A
S2140005D0CC9E0400E41D0020DC9E040028000020C1
S2140005E020010B0220000D0120060C000000000078
S2140005F0F8B5314B314C1888012262616428636E6D
S21400060033D842F0E9FA2AA3D3E9002342F04AFBA2
S21400061002460B4600202A49E56942F08FF9064655
S2140006200F46284642F0C8FA32463B4642F03AFBAE
S21400063042F04AFDE067E06942F0BEFA02460B4629
S2140006403046394642F02EFB42F03EFDE066E06959
S21400065042F0B2FA02460B463046394642F022FBDA
S21400066042F032FDC4F88C00F8BD73B1013BE3667E
S214000670124B5A6F7AB9DA69DA67104BD3F88420CE
S21400068082B9DA69C3F88C20F8BDE369E3660B4BE0
S2140006905A6F002AEFD0013ADA67084BD3F8842065
S2140006A0002AEED0013AC3F88C20F8BDAFF30080E4
S2140006B07B14AE47E17A843F320000200080014080
S2140006C00000F03F000000002DE9F04F8BB003F073
S2140006D027FB03F077FBCB48CB4ECC4CDFF8B0A320
S2140006E0DFF8B093CA4DDFF8B08302F0C7FD03F021
S2140006F0C1FFC84806F048FB0DF0C6FB0DF0E2FB54
S2140007000DF0BCFB0DF080FB0DF0A8FB0DF0A0FB80
S2140007100DF080FB0DF0CAFB0DF08EFB0DF0BAFB62
S2140007200DF07EFB00F010FC03F0F2FD04210A46FB
S2140007300520002302F0E4FB0520014604220023E6
S21400074002F0DEFB012213460520062102F0D8FB4C
S214000750012213460520072102F0D2FBFFF7B0FE68
S214000760AD48012100F0D0FFAC48012100F0CCFFDD
S21400077004210A460520002302F0C2FB04210A4693
S2140007800520002302F0BCFB0520014604220023BE
S21400079002F0B6FB052001460422002302F0B0FB5F
S2140007A0002001460346042202F0AAFB03200A2189
S2140007B00422002302F0A4FB03200C2104220023C1
S2140007C002F09EFB03200B210422002302F098FB7C
S2140007D0736B934A23F01F0343F012037363336B68
S2140007E01068516843F001033363736B23F4F853C6
S2140007F043F490537363336B43F002033363736BBA
S21400080023F4F81343F490137363336B43F0040339
S214000810336303AB03C31189927A19809A7030460A
S21400082003AA002102F09AFC304603AA012102F036
S21400083095FC03AA3046022102F090FC794801F0AC
S214000840C3F8794BA3FB0023DB0BF361F369F36674
S214000850764AF3691360F369F367F369C6F88C3078
S2140008600023069301223046079308938DF8243020
S21400087006A906238DF818208DF819208DF81A3051
S21400088002F014FCFFF758FD694E05F0B1FE016852
S21400089021F47F4121F00701A942834600F06A81D6
S2140008A016D9B14200F0EC815ED9414500F02781AF
S2140008B040F28C805F4B994200F09D8103F180737B
S2140008C0994217D15C4843F0B5FBFFF755FEDCE7CD
S2140008D05A4A914200F0E28010D8A2F54022914296
S2140008E0D3D002F58022914200F0B581544B994254
S2140008F000F08581534843F09DFBC6E7524A91427B
S21400090000F0D58140F20B82504B994240F00182B4
S2140009104FF0000B08224E494E48AAF800B003F0EC
S214000920DBFEBAF800104C4843F084FB4B4B4C48B7
S2140009301B6819464222C3F804B083F809B01A723D
S21400094041F8040B05F09CFC46494748102220233A
S2140009500A600B600221FFF7CBFC44480621FFF734
S214000960C7FCFFF7E9FC90E7414A914200F0D580CA
S21400097002F57402914240F0B2813E4843F05AFBC1
S214000980364B9BF80CE01A683B4882F804E00423D8
S21400099053725823D372022313733C235371D371BB
S2140009A00023114693711372937299F80030334AFC
S2140009B041F8040B013382F800E089F8003005F0B6
S2140009C05FFC2F480321FFF793FC5EE72D4A914218
S2140009D090D181882C4843F02DFB2C480221FFF74C
S2140009E087FC1E4B19681E4B4FF480324A604E221D
S2140009F00A7201224A72184641F8043B05F040FC90
S214000A0043E700BF00040140008001401C120020A4
S214000A10A0000103689D04000035080000020400E1
S214000A205C9D040040410500C1350E815011002038
S214000A30A0001406A000140928A10400A0001400B9
S214000A40A00001004CA10400A0000801A0001401B1
S214000A50FD370400ED37040040A00400E41D00202C
S214000A6020060C00FCA00044989F040064A004002C
S214000A70A0001404D0A004002009080028000020CC
S214000A80FCA00400A00014076CA004008CA00400C6
S214000A903000002020120020A0001408B24BB34AF9
S214000AA019684FF6FC608880104641F8042B05F064
S214000AB0E7FBAF4843F0BEFA9BF80420002A00F09C
S214000AC01381BBF80510DBF80720AA4843F0B2FAFA
S214000AD09BF806309BF8052042EA0323A64A00212D
S214000AE01380AAF80010FFF727FCA449A4480822A0
S214000AF003F0F2FDA3480221FFF7FAFBC5E690F8E3
S214000B0004C0A14BA149B0F80520A148BCF1000FD4
S214000B1008BF194643F08EFAB7E69BF804109BF818
S214000B2005209C4843F086FA9BF8061000222260B7
S214000B3059B15A449848D17943F07CFA22689BF818
S214000B40063001329A422260F3DB9448944F43F019
S214000B5071FA9BF815209BF816309249924843EAA2
S214000B6002231A463B8043F007FB8F480621FFF717
S214000B70BFFB8AE64268D10700F14E8193077FF5F6
S214000B8084AE8A480421FFF7B3FB894A102313601A
S214000B90884B1B78002B40F06381874B18689B4678
S214000BA042F02CF86EA3D3E9002341F0C7FE42F0D2
S214000BB0ABFA07EE900A814BF5EEC07AF1EE10FA2A
S214000BC01B68019342BFB7EE007AF0EE477A8BEDD2
S214000BD0007A9DED017A58BFCBED007AB8EE477AE1
S214000BE0774B67EE277AFCEEE77AC3ED1B7A012097
S214000BF0FFF72EFC49E6734843F01CFA45E6724BB5
S214000C001B68002B3FF461AE704B1B68002B3FF453
S214000C105CAE554B6E48196841F8040B05F030FB86
S214000C206C4B18680430FFF761FC4F4B6A481B6832
S214000C300322DA8000229A7201221A719A811946DA
S214000C4002225A715A7204221A72DA7241F8040B9E
S214000C5005F016FB19E60379422B00F0F98063D9FC
S214000C604D2B02D04E2B7FF410AE3F4B19685B4BDA
S214000C7000220A71184641F8043B05F043FB04E6DF
S214000C80574843F0D7F957480221FFF731FB364B58
S214000C901968554B4FF400524A6042220A720022ED
S214000CA04A72184641F8043B05F0EAFAEDE58188F9
S214000CB04E4843F0BFF94E4899F800304D49FF22A0
S214000CC00270002B3FF4E1AD013BDBB20B70002B52
S214000CD07FF4DBAD48480321FFF70AFBD5E5474B19
S214000CE099427FF407AED0E5454843F0A3F90221C8
S214000CF04448FFF7FDFA444843F09CF91A4B434832
S214000D001B68194603221A7141F8040B05F0B8FA5D
S214000D10BBE503F5740399423FF4B7ADEAE53C4BF7
S214000D2099423FF4B2ADE5E50A2B7FF4AEAD012063
S214000D30FFF726FB374B1B78002B7FF4A6AD0A4B3C
S214000D4029481B680A2219461A7200225A605A72EB
S214000D5041F8040B05F094FA97E500BFAFF3008066
S214000D609A9999999999B93FE41D00202002010AA1
S214000D70589F04006C9F040054110020FD370400A7
S214000D80ED370400989F0400F49E0400FC9E0400C7
S214000D9098A00400089F0400509F0400489F040089
S214000DA0221200204C9F04004830002004A00400BB
S214000DB0FCA000445C3000202000002050110020E1
S214000DC000800140B8A00400982114429C211442DF
S214000DD020000103E81D0020200A1405200101015F
S214000DE018A0040030A0040020060C0008A104008F
S214000DF028000020201200201C9E0400A0000303F0
S214000E00A49F0400BC9F0400CC9F04002001140192
S214000E10A00003011812002041480421FFF768FAD9
S214000E20404B10221A60404B404A19780131C9B233
S214000E30A2FB01323C4B5208197002EB42023C4BBB
S214000E408A1A00201A70FFF703FBDBF8042095E6E9
S214000E50384B10212022C3F80811C3F8082114E5E6
S214000E60012B2DD0022B7FF4C2AE334B18689B4665
S214000E7041F0C4FE28A3D3E9002341F05FFD42F011
S214000E8043F907EE900A2D4BF5EEC07AF1EE10FA14
S214000E901B68019342BFB7EE007AF0EE477A8BEDFF
S214000EA0007A9DED017A58BFCBED007AB8EE477A0E
S214000EB0234B67EE277AFCEEE77AC3ED237A96E6B5
S214000EC0204B18689B4641F099FE13A3D3E90023F4
S214000ED041F034FD42F018F907EE900A174BF5EE94
S214000EE0C07AF1EE10FA1B68019342BFB7EE007AA3
S214000EF0F0EE477A8BED007A9DED017A58BFCBED88
S214000F00007AB8EE477A0E4B67EE277AFCEEE77A61
S214000F10C3ED1F7A6BE600BF9A9999999999B93FE4
S214000F20F49F0400FCA0004656110020ABAAAAAA13
S214000F305C30002000A0004024000020501100205B
S214000F40008001402C00002030B50A4D0FCD87B040
S214000F5001AC0FC42B6823604FF0FF3001A920F0CE
S214000F60A4FE20B94FF0FF30012120F098FE07B014
S214000F7030BD00BF60A10400FEE700BF08B500F06A
S214000F806DF8094A094B9A420CD2D043184420F017
S214000F900300074B0430184453F8041B42F8041BA4
S214000FA08342F9D1FFF7D8F8000000205010002047
S214000FB0F4E904000048704700F049020F4BD3F8EC
S214000FC0943003F00703032B14D0042B0FD0022B0E
S214000FD00AD00B4B1868094BD3F80031C3F304232F
S214000FE00133B0FBF3F07047064B1868F3E7064B87
S214000FF01868F0E74FF40040EDE700BF00400E40F1
S21400100040000020380000203400002008B5FFF71C
S214001010D5FF054B054AD3F80831C3F3082301333F
S214001020B0FBF3F0106008BD00400E403C0000200E
S214001030014B1868704700BF38000020054A064B71
S2140010401060D3F8943003F00703022B00D07047EB
S214001050FFF7DCBF3800002000400E40034AD2F8FD
S214001060883043F47003C2F88830704700ED00E023
S2140010704FF40040704700BF4FF47A70704700BFCF
S214001080014B1868704700BF34000020054A064B25
S2140010901060D3F8943003F00703042B00D0704799
S2140010A0FFF7B4BF3400002000400E402DE9F8439F
S2140010B01A4B1A6ED96E11EA02081DD4184C194F35
S2140010C099460126002516EA080F0CD02368C9F8B1
S2140010D0686028463BB1A16862680131A160984704
S2140010E0637B012B09D00135082D4FEA460604F133
S2140010F01004E8D1BDE8F883FEE707EB451303F1DB
S214001100080218330028EED1117960F341011171FD
S2140011101A7960F341021A71E5E700BF00200E401D
S21400112028120020A812002070B5044678B1084E98
S214001130012594FAA4F0B0FA80F056F8203005FAAB
S21400114000F224EA020403B19847002CF1D170BDE6
S214001150A8130020054B4FF480214FF48062C3F89B
S21400116080111960C3F880211A60704700E100E022
S21400117038B504460D4601F0BBF9034B43F824503E
S214001180BDE8384001F0B8B9A8130020064AD2F8E6
S2140011902804D2F81C1445F2555308401840C2F8EB
S2140011A02404FFF7C1BF00BF00A00040064AD2F8E3
S2140011B02804D2F81C144AF6AA2308401840C2F89D
S2140011C02404FFF7B1BF00BF00A0004008B5034BE2
S2140011D01B6803B19847012008BD00BFE813002034
S2140011E038B5194D2B68044613B1984700B938BD79
S2140011F0631E032B05D8DFE803F00B161E0201F072
S2140012004BFC6B68204613B19847204638BD38BD66
S2140012100E4A136923F00403136130BF6B6820463F
S214001220002BF1D1F3E7002001F008FB6B682046A5
S214001230002BE9D1EBE7002001F01AFB6B68204693
S214001240002BE1D1E3E700BFF013002000ED00E043
S2140012500C4A0D4B70B50D4C10600D4D61600022B0
S2140012601A705A70256001F0ADFEC30300D470BD3D
S21400127001F0A2FE6368002BF9D00420BDE87040A0
S214001280184700BFE8130020EC130020F0130020DE
S214001290CD1100002DE9F041184D01F021F92B7811
S2140012A0804613B901F010FB2B78154F002483B944
S2140012B06B78002B14BF02200320FFF791FFBB685A
S2140012C006460BB198470446E30704D52B78002B57
S2140012D0EED00120F1E7B31EDBB2012B05D9404664
S2140012E001F002F93046BDE8F08101F0F1FA40461F
S2140012F001F0FAF83046BDE8F08100BFEC1300209C
S214001300F0130020831EDAB2012A00D9704705497F
S214001310CA5C022802F10102CA54F7D1024B01222C
S2140013201A607047EC1300200400C6430238C3B2AC
S214001330012B00D97047064B1A5C2AB91B78002B84
S214001340F8D1044A13607047013A1A54F6E700BF12
S214001350EC1300200400C643054B1A782AB95B78C4
S214001360002B14BF0220032070470120704700BFE7
S214001370EC130020DFF8D0C0304BF0B5DCF800707E
S21400138038683C461A1D03F1280E52F8041C39B181
S21400139018B11E792579AE4202D908461F461C466A
S2140013A00833734502F10802EFD1CCF8007000282C
S2140013B03ED0234BDA6922F0FF02DA61DA6921793E
S2140013C00A43DA611A6B42F080421A63DFF87CC087
S2140013D01C4BDCF8007038683C461A1D03F1280EDA
S2140013E052F8041C39B118B11E792579AE4202D2E2
S2140013F008461F461C460833734502F10802EFD123
S214001400CCF8007070B10E4BDA6922F47F42DA61D4
S214001410DA69217942EA0122DA611A6B42F0004267
S2140014201A63F0BD064A136B23F000431363F0BD46
S214001430034A136B23F080431363C7E7141400209A
S21400144000300E403C140020FC1300200C1400203A
S21400145038B5224C226B636A134020D45B001AD541
S2140014601F4B1868056895B10021082242F090FDD0
S214001470226A1C491C4B0868D2B2D20083FB0223A6
S214001480A0EB530000F3070040B20121A847134B1E
S2140014904FF08042DA62BDE83840FFF76BBF134B6F
S2140014A01868056895B10021082242F071FD226A8D
S2140014B00C490D4B0868D2B2D20083FB0223A0EB86
S2140014C0530000F3070040B20021A847034B4FF03B
S2140014D00042DA62BDE83840FFF74CBF00300E40ED
S2140014E0FC13002000140020676666660C140020BB
S2140014F0FFF7AEBF1F4B204810B50021282201245D
S2140015001C7042F045FD002128221C4842F040FD98
S2140015101B4A1C481C491D4B03600B601368526D28
S214001520C3F30743FF2B0ED0D2B2FF2A0AD01848C7
S214001530D100A0FB010103EB830002EBD00203EB1A
S214001540910301E013469F22124C13491348226070
S2140015504FF040420360CA620B6B114A012023F031
S21400156040430B63C2F880011060FFF703FF0020C2
S21400157010BD00BF64140020141400203C1400208A
S214001580B081E00FFC1300200C140020041400208F
S214001590CDCCCCCC1014002000300E40001400201F
S2140015A000E100E0154BF0B541F67132144D1E6CAB
S2140015B01A645B682A46002314798C4202F10802FA
S2140015C00ED00133052BF7D14FF040710B4A53680C
S2140015D023F040730B43536076B100231364F0BDD1
S2140015E055F83340DFF818E084424FEAC307E8D3E3
S2140015F077447B791906E9E7F0BD00BF00000E408E
S21400160090A10400224B98423AD01AD9214B984216
S2140016103AD00CD8204B984225D003F5371303F563
S214001620D86398422AD11D4BD3F8A00070471C4BB4
S214001630984214D01B4B984220D1184BD3F8B000D8
S2140016407047194B984215D011D9184B984211D0B3
S214001650174B984212D1114BD3F88C0070470F4BA2
S214001660D3F8AC0070470D4BD3F89C007047114B75
S214001670984203D1094BD3F880007047002070478A
S214001680064BD3F898007047044BD3F8A800704771
S214001690405DC60080BA8C010024F400B081E00FE3
S2140016A00048E80180D5430280841E0000093D0002
S2140016B0C0CF6A0040420F0008B5FFF77BFC002150
S2140016C0BDE80840FFF76EBF0C4A0D4BD2F89010ED
S2140016D0516A21F0300141F0100110B45162146BD0
S2140016E0C0F3C311033123400F2928BF0F21034342
S2140016F043EA017313635DF8044B704700400E40E5
S21400170000F8FF0FFFF74EBFC0F30323013B30B4D2
S214001710092B13D8DFE803F0251D121221272A1201
S2140017200523144D4FF48034134AD2F84431DB07B6
S214001730C0F3043004D528448000016030BC7047F4
S214001740D2F840311C42F6D0D2F840311C42F7D1D4
S214001750F1E70A4DC0F30430EDE7094DFAE7094D0D
S214001760F8E7094DF6E7094D0124DDE7084D10249A
S214001770DAE700BF8007F21000400E400006F210C5
S2140017808005F210800AF2100000F2100007F21036
S2140017904007F210C0F30313013B062B45D8DFE8E1
S2140017A003F0171D23292F3504002A4B984247D0F3
S2140017B003F5B01303F58053984236D1264BD3F881
S2140017C02831C3F3012304330120984001387047C1
S2140017D0214BD3F80001C0F3042070471E4BD3F80A
S2140017E01401C0F3042070471B4BD3F80001C0F36C
S2140017F000607047184BD3F80C01C0F30820704700
S214001800154BD3F80801C0F308207047134B9842D5
S2140018100DD0134B984208D10F4BD3F8203101203E
S214001820C3F30113984001387047002070470A4BF5
S214001830D3F82031012003F00F0398400138704799
S214001840054BD3F828310120C3F301139840013823
S214001850704700BF7017160000400E406006140068
S21400186060162A0008B5FFF795FF013008BD00BFD7
S21400187000F00F000138072847D8DFE800F0121DF7
S2140018803346283E4604264BD3F85C3103F030033B
S214001890202B40D0302B40D0102B0CBF072001202F
S2140018A070471F4BD3F8943003F00703023B022B1C
S2140018B02FD81C4AD05C7047194BD3F8803003F001
S2140018C00703013B042B22D8174AD05C7047144B01
S2140018D0D3F8883003F00703013B042B17D8134ACC
S2140018E0D05C70470E4BD3F8843003F00703013BFF
S2140018F0042B0CD80E4AD05C7047094B1B6F13F0B4
S214001900010F14BF092007207047002070470120F0
S214001910704705207047042070470820704700BFB6
S21400192000400E408CA1040074A1040084A10400B1
S2140019307CA1040010B50446FFF79AFF1E4B9C429C
S2140019401DD01E4B9C4214D01D4B9C420BD0013820
S21400195004282FD8DFE800F0032A19260300BDE884
S2140019601040FFF785BB174BD3F8800000F0070048
S214001970EDE7144BD3F8880000F00700E7E7114BBB
S214001980D3F8840000F00700E1E7FFF73FFB0D4BBC
S214001990D3F80021C2F30062013201239340B0FB6A
S2140019A0F3F010BDBDE81040FFF766BBBDE8104081
S2140019B0FFF766BB002010BD03001C0005002000DA
S2140019C002001A0000400E4000F47810B0F5901F98
S2140019D008B573D01CD9B0F5E01F34D055D9B0F592
S2140019E0281F35D067D9B0F5301F00F08280B0F5DB
S2140019F0381F1AD15648FFF73BFF072842D0082861
S214001A0000F09B80042810D1BDE80840FFF710BB0B
S214001A10B0F5002F13D00AD9B0F5402F2DD0B0F571
S214001A20602F2FD0B0F5202F1CD0002008BDB0F5B9
S214001A30003F53D0B0F5802F45D00028F5D1BDE843
S214001A400840FFF7BBBA4348BDE80840FFF772BF3F
S214001A504148FFF76FFF414BD3F82031C3F3011322
S214001A60D84008BDFFF7AAFA3C4BD3F81431C3F3AD
S214001A7004230133B0FBF3F008BD3948FFF7F8FE46
S214001A80072856D1374B186808BDB0F5B01F43D0AD
S214001A90B0F5D01F3BD0B0F5A01FC6D12E48FFF73B
S214001AA049FF2E4BD3F82021012302F00F0293406A
S214001AB0B0FBF3F008BDB0F5001FB6D12A48BDE86C
S214001AC00840FFF737BFFFF779FA244BD3F80C31FD
S214001AD0C3F308230133B0FBF3F008BDFFF76EFA3B
S214001AE01E4BD3F80831C3F308230133B0FBF3F0E1
S214001AF008BD1848FFF71EFF184BD3F82821C2F37D
S214001B000122043201239340B0FBF3F008BD1248D3
S214001B10BDE80840FFF70EBF0E48FFF70BFF0F4B60
S214001B20D3F828210123C2F301129340B0FBF3F04F
S214001B3008BD09287FF479AF81E7FFF73FFA074B26
S214001B40D3F80031C3F3042303FB000008BD00BF35
S214001B5098002E0003001C0002001A0000400E40F1
S214001B6006000C004400002005002000C0F303130C
S214001B70013B10B50C46072B15D8DFE803F01E58BE
S214001B80626C7895AA04944B98420CD1934AD2F88A
S214001B904431D90708D5914BD3F8301121F0030111
S214001BA00C43C3F8304110BDD2F840315B03F2D588
S214001BB0D2F840315B03F7D4EDE7FFF77DFD884AA6
S214001BC0864B01211160D3F8002142F08072C3F8E1
S214001BD00021D3F8001121F4F85141EA0424C3F897
S214001BE00041FFF713FA7F4B1C68002CFCD17E4B9C
S214001BF05968C1F30141FFF7D5FC7C48FFF7E4FEC6
S214001C007B4B984240F283807A4B0121984294BFE6
S214001C104FF080744FF00074714A704B1160D3F827
S214001C20000120F080700443C3F8004110BD6B4BE8
S214001C30D3F8141121F4F85141EA0424C3F81441EE
S214001C4010BD664BD3F8001121F0807141EA0464A0
S214001C50C3F8004110BD614BD3F80C1121F4FF31DD
S214001C6021F4807141EA0421C3F80C1110BDFFF77E
S214001C7023FD5B4A594B01211160D3F8002142F045
S214001C808072C3F80021D3F8081121F4FF3121F443
S214001C90807141EA0421C3F80811FFF7B7F9514BE8
S214001CA01C68002CFCD1A2E7534B984276D0534BCD
S214001CB0984256D0484B98427FF475AF474AD2F8C0
S214001CC04431D9073FF567AFD2F840315B03FBD408
S214001CD061E74B4B984226D003F5B01303F58053CB
S214001CE0984216D13D4AD2F84401C40701F10103D7
S214001CF0B3FA83F3C3F11B010CD5384AD2F8283166
S214001D0023F4407343EA0123C2F8283110BD21466C
S214001D1082E710BDD2F840315806EED5D2F84031F1
S214001D205806F7D4E9E72D4AD2F84401C00701F176
S214001D300103B3FA83F3C3F11F0109D5274AD2F88A
S214001D40283123F0300343EA0113C2F8283110BDCE
S214001D50D2F840315B06F1D5D2F840315B06F7D4B5
S214001D60ECE71E4AD2F844014B1CB3FA83F3C3F1E6
S214001D701F01C30709D5194AD2F8203123F03003D2
S214001D8043EA0113C2F8203110BDD2F840315C0797
S214001D90F1D5D2F840315C07F7D4ECE70F4AD2F819
S214001DA04401C40701F10103B3FA83F3C3F11F0131
S214001DB008D50A4AD2F8203123F00F030B43C2F8A5
S214001DC0203110BDD2F840315807F2D5D2F8403154
S214001DD05807F7D4EDE700BF8009120000400E4018
S214001DE04000C843C800C64300300E400025080027
S214001DF00048E8010090D0036006140060162A0030
S214001E00701716000139FFF7B1BE00BFF8B50546DA
S214001E10FFF7F8FB434B074611201E681D60FFF7CF
S214001E2027FD05287BD0404B1C68002CFCD13F4B7F
S214001E309D425FD03E4B9D4261D03E4B9D422BD093
S214001E401120FFF715FD052848D0B5423BD83A4B80
S214001E5011201F61FFF70CFD052853D03748FFF708
S214001E60B3FD374B984214D9364B0121984294BFA4
S214001E704FF080704FF00070334B2F4A1960D2F845
S214001E80003123F080731843B542C2F800011FD911
S214001E90F8BD00200146EFE727F0C06747F08067EF
S214001EA01120FFF7E5FC0528CFD10024234626495C
S214001EB0214A0B60D2F8003123F080731C43B542F0
S214001EC0C2F80041C3D92846012100F037FDBEE71D
S214001ED000200121BDE8F84000F030BD184B9D42BF
S214001EE0E4D9184C0123A54294BF4FF080744FF0FC
S214001EF00074DCE727F0C06747F00077D0E727F0EC
S214001F00C067CDE7FFF782F8104A1368002BFCD1B4
S214001F100F4B5968C1F30141FFF744FB9EE7FFF7FB
S214001F20CBFB80E7400000206028C84380841E006A
S214001F3000093D0040420F0000400E40002508000A
S214001F400048E8010090D0034000C843C800C643DC
S214001F5000300E401C4B5B6A002970B523F04053DE
S214001F6014BF4FF08055002542B343F000531D4385
S214001F70FFF75EF8154A06461468002CFCD1144B91
S214001F8059683046C1F30141FFF70CFB114B9E42E6
S214001F9018D9114B01219E4294BF4FF080744FF028
S214001FA000740E4B084A1960D2F8003123F0807393
S214001FB01C43054BC2F800415D6270BD1D43024BD9
S214001FC05D6270BD2146ECE700400E40C800C64387
S214001FD000300E400048E8010090D0034000C8439F
S214001FE0144B5B6A13F0300F10B408D020291DD0B4
S214001FF030294FF4800404D019B10F4A03E04FF49F
S21400200080044FF440020B49D1F890300948134041
S2140020109342F9D134B1D0F8A0005DF8044BC0F378
S2140020208020704701205DF8044B704700244FF471
S2140020300002E8E700400E40FFF3E17FF8B506280F
S2140020400ED8DFE800F0535A045F230D640041B950
S2140020503C4B08243C4A14661A68002AFCD1F8BD9A
S214002060F8BD39494B6A13F0300F57D1374BDB6B4D
S2140020704B6ADB0761D54C6A324B24F0300444F0DF
S21400208001044C6204260325012706E0304B202479
S214002090102605250029DDD000272B490E66196875
S2140020A00029FCD0002ADBD02A4C2C44A40023684C
S2140020B0002BFCD00228D3D1002FD1D0224A536A5D
S2140020C013F001012FD1FFF78BFF1F4DD5F89C7041
S2140020D0022000210122FFF7B1FFC7F30A00FFF735
S2140020E0F3FA2E662368002BFCD0F8BD1A4B4FF48B
S2140020F000744FF480760925CCE7184B80244026E0
S2140021000725C7E701263546154B0224C2E7154BBF
S2140021104FF400444FF480460F25BBE7094B0426D6
S21400212003250027B9E720234FF48061C2F8A810E2
S21400213019465366FFF754FFC7E7024B04260325EC
S2140021400127AAE70812C84300400E4000300E40A0
S2140021501012C8438004F2102012C8431812C84355
S2140021600012C8433812C843112838B50C4641D06F
S21400217000F00F00013807283BD8DFE810F02901EF
S214002180890087003A0069005F003A004800012095
S214002190014602460324FFF751FFFFF78DFA944BE2
S2140021A094485C67FFF710FC934B984240F2C2805D
S2140021B0924B0121984294BF4FF080704FF0007010
S2140021C08F4B8B4A1960D2F8003123F08073184386
S2140021D0C2F80001FEF71AFF8A4A1368002BFCD1EA
S2140021E0894B5968C1F30141FFF7DCF9002D00F077
S2140021F0C18038BD042900F0E48005295AD00025A6
S214002200023C032CF5D8DFE804F098459BA84C1E4A
S214002210072CEED801A353F824F000BF812300005A
S214002220F3210000F3210000A7230000F3210000A3
S214002230F32100009923000095230000072900F0F1
S214002240BC80092940F09580694B01221A6738BD89
S2140022506E4D013C0A2CCCD801A353F824F000BFE5
S214002260C92200002723000019230000F3210000E4
S214002270F3210000E1220000F3210000F32100001A
S214002280F3210000DD220000CF220000604DE0E7D1
S214002290604DDEE70120032401210A46FFF7CEFE4B
S2140022A0FFF70AFA002D3FF47AAF564A1368002B60
S2140022B0FCD174E7584A594B15689D429FD9284669
S2140022C0002100F03BFB9BE700232B6038BD01217B
S2140022D00A460620FFF7B2FE0523F6E70423F4E7D6
S2140022E0FEF794FE444B984264D9444B0121984231
S2140022F094BF4FF080704FF00070414B3C4A19601D
S214002300D2F80031464923F0807303430120C2F817
S214002310003103230860D8E7012001460246FFF794
S2140023208DFE0123D1E701210A460020FFF786FE35
S2140023300223CAE70020014642E700200424ABE758
S2140023402F4B2B4A01211960D2F80031022043F0AE
S2140023508073C2F8003104469EE7294B244A0124C4
S2140023601C60D2F8003143F08073C2F800310320BD
S21400237092E738BD28460121BDE8384000F0DEBAB5
S21400238000211B4AD2F85C3123F030030B43C2F81D
S2140023905C3138BD3021F4E701210A460420FFF7FE
S2140023A04DFE1021EDE701210A460220FFF746FE0A
S2140023B02021E6E7002001469FE70D4B00221A6722
S2140023C038BDFEF735FE054600287FF478AF16E7E1
S2140023D08C1E0025032C3FF60CAF01A353F824F007
S2140023E03B2300008F210000412300005B230000F8
S2140023F000400E40002508000048E8010090D00389
S2140024004000C843C800C64300300E4088400E4017
S21400241084400E4080400E4040000020002D3101D8
S2140024200816C843F8B504461120FFF721FA022023
S21400243000210122FFF702FE1748277C416A174D4C
S2140024402678A288E38821F00101022F08BF41F018
S214002450010141622E60617A41EAC221C162016BCC
S214002460257AA27A01F07F610A43E91C42EAC32278
S2140024700F2942EAC51328BF0F2143EA01730363FD
S214002480A17B637BE27B247B090141EA0333134390
S21400249043EA04434363F8BD00400E40A004C8432B
S2140024A070B504461120FFF7E3F900200146024606
S2140024B0FFF7C4FDA17863782278E478054D0648D6
S2140024C0064E2E60090641EAC323134343EA04235B
S2140024D0036070BD38400E4438400E467F1B000730
S2140024E0EFF3108072B6704700B962B6704700BF4F
S2140024F0EFF3108072B6704700B962B6704700BF3F
S214002500024B9B6803EB80000164704700ED00E01F
S214002510F0B596469DF81860059A6BB1754600248E
S21400252076B1A14214D907682F6001349C4205F1A8
S214002530040500F10400F3D1064BC3F808E0F0BD33
S214002540A1422F6802D9002FEFD1ECE7002FECD183
S2140025502A60EAE700ED00E00E2943680ED8012263
S21400256010B48A4047F2E004144023F01F0334B14D
S21400257043F01003194341605DF8044B704740F682
S2140025801F741440002CF7D00B434360F4E700BFE1
S21400259070B4102A056A046A036A066ACE600D6083
S2140025A04C608B6007D1046A026A036A006AC861DD
S2140025B00C614A618B6170BC704700BF42EA03231E
S2140025C040F2011293425BD0B3F5817F14D340F200
S2140025D0012293424BD030D9B3F5407F24D040F24D
S2140025E0013293423ED12B4BD3F878311A0EC3F307
S2140025F0074303600A607047012B2AD00BD3B3F55C
S214002600807F2FD1234BD3F86C311A0EC3F30743C8
S21400261003600A6070471F4BD3F86C31C3F3072280
S214002620DBB203600A6070471A4BD3F870311A0E9B
S214002630C3F3074303600A607047B3F5007F11D108
S214002640144BD3F87031C3F30722DBB203600A6081
S2140026507047104BD3F87431C3F30722DBB2036024
S2140026600A6070470022134603600A607047094BF1
S214002670D3F87831C3F30722DBB203600A607047F1
S214002680044BD3F874311A0EC3F3074303600A6091
S214002690704700BFB081E00F1B4BD3F88031032892
S2140026A02DD8DFE800F0272910021B0E79B91B038E
S2140026B013F4702F23D11549CA6E22F470421343C7
S2140026C0CB6601207047C3F307430029EFD00129EA
S2140026D017D11B0313F4702F11D110B40B4CD4F880
S2140026E0E02022F4704213430846C4F8E0305DF858
S2140026F0044B7047DBB2D9E7C3F30723D6E70020C5
S21400270070470120704700BFB081E00F00300E40D8
S214002710134B144A19685868C1F30121C0F30140ED
S2140027201368002BFCD1814201D9022900D07047E2
S21400273010B51120FFF796F804461120FFF744F96C
S214002740094B04FB00F0984205D811200521BDE88E
S2140027501040FFF709BD0548FFF758FBF5E700BF37
S21400276000300E40C800C643002D3101C0EA2101EA
S21400277038B5184B184C18781849194D194AC0F135
S214002780020010238340236145F60E03D1F88041F2
S214002790C1F880312B6840F255101840086604F0E6
S2140027A0010403F001001368002BFCD10E4B1978CE
S2140027B0052905D01120FFF7D7FC2B6803F0010090
S2140027C010B9064B02221A661CB1044B0022C3F84D
S2140027D0802138BD7414002000300E4000400E40AA
S2140027E070140020C800C6437514002020B10128CC
S2140027F000D07047FFF7BCBF0A4A08B50A4BD2F8AC
S21400280090201A601120FFF733F8084B084A18701A
S2140028101368002BFCD1074B074A5B68C3F30143E0
S214002820137008BD00400E40701400207514002080
S214002830C800C64300300E407414002010B504468D
S21400284080B9FFF765FF094A136943F00403136173
S21400285030BF1CB9BDE81040FEF7D8BBBDE810403D
S214002860FFF786BF0020FFF7C1FFEAE700ED00E0B4
S21400287010B5044600BBFFF74BFF114BD3F8802181
S214002880D20748BF002245F60E004FF42071C3F869
S2140028908001196648BFC3F880210A4A136943F0CD
S2140028A00403136130BF1CB9BDE81040FEF7AEBB91
S2140028B0BDE81040FFF75CBF0020FFF797FFDAE7A0
S2140028C000400E4000ED00E00020FFF78FBF00BF85
S2140028D0FFF74EBF164B70B5D3F8003104460E46D0
S2140028E0FEF76CFB134A1368002BFCD1124D6B6885
S2140028F0C3F301439C420CD0022C11D0C4F1020257
S214002900102393402B612CB11EB10A4A1368002B8A
S214002910FCD170BD2146FEF7F5FE002EF5D1F8E796
S2140029202146FEF7EFFE10232B61002EEDD1F0E7D7
S21400293000400E40C800C64300300E4010B5104B95
S21400294082B0D3F8004158B10E4B1B7813B10E4B32
S21400295098420ED9002002B0BDE81040FFF7BABF7B
S2140029600191FEF72BFBC4F3042404FB000001993D
S214002970EAE7022002B0BDE81040FFF7ABBF00BF99
S21400298000400E406C140020FF2C3101034B0278EF
S2140029901A7000200121FFF7D1BF00BF6C14002081
S2140029A0044A4178136823F4407343EA0123136012
S2140029B0704700BF00300E40154903798A69F0B5AC
S2140029C00578447890F802E0C7784679002D14BF61
S2140029D00425002522F03F02002C14BF0224002408
S2140029E01A43BEF1000F14BF08200020002F0CBFB2
S2140029F0134642F0010343EA0502224302438A617A
S214002A000B6823F4403343EA06430B60F0BD00BF77
S214002A1000300E401E498B6F1D4ADB07FBD4136C3B
S214002A2013F003031CD01B4A0121834211601CD003
S214002A30032B02D1431E012B18D915498A6F144B5C
S214002A40D207FBD41A6C22F0030202431A649A6F70
S214002A50D207FCD400300F4B18BF01201860704717
S214002A600028E7D10B4B18607047704708494FF4B1
S214002A700023CB628A6F064BD207FBD41A6C22F077
S214002A80030242F001021A645A6A1103FCD5D4E725
S214002A9000300E40B40AC64338B5124B4AF6E85228
S214002AA09C699D699A60986924F4403410F001008E
S214002AB044F4003445F4403505D11B6C03F00303A1
S214002AC0013B012B0AD9074B9C619D619C619D616E
S214002AD09C619D619C619D619C6138BDFFF79AFF7A
S214002AE0F1E700BF00300E402DE9F04FA0F5E1649D
S214002AF089B00023B4F5966F02930393049305936D
S214002B00069307936CD8B0F5E16F94BF00250125B6
S214002B10002D69D14A4BD3F86831C3F30724DBB2E2
S214002B20079404934FF4167B4FF49669DFF814A1CC
S214002B300191DAF84C60C6F301760446334602A8E3
S214002B4005A990462A46FFF739FDDAF8E070C7F384
S214002B5001273B4603A806A92A46FFF72FFDDDF806
S214002B6010C0079B02980090C9EB0404CCEB03034B
S214002B700798DDF814E00699039A03FB04F3B3FB09
S214002B80FBF3634498422BD39C4529D8C2EB01093A
S214002B9009FB04F9B9FBFBF99144494520D34A45A2
S214002BA01ED80099C1EB0E0202FB04F4B4FBFBFB3B
S214002BB08B44DE4514D3594512D8B8F1000F0BD01C
S214002BC0DAF85C2022F4FE4222F0020242EA0323F4
S214002BD043EA4503CAF85C30019B93B9012000E044
S214002BE0002009B0BDE8F08F154BD3F868311C0EF5
S214002BF0C3F30743079404934FF4966B4FF4E169CD
S214002C0094E730460021FFF747FD0028E8D0384615
S214002C100121FFF741FD0028E2D00A4A536ED9454C
S214002C2038BFD94623F4FF7323F00103B9F1E70F49
S214002C3028BF4FF0E7092B4343EA49035366D0E722
S214002C40B081E00F00300E403A4B1A6FD96CC907BE
S214002C5030B402F0070241D5012A50D913285BD9B7
S214002C60143813288CBF4FF47F424FF4EE42314C99
S214002C703148E36C314D23F47F431343E364E16C46
S214002C800288E06CC1F303210131283202EB6202B4
S214002C9001EB8103B2FBF3F3013B072B20F0EE6060
S214002CA028BF072340F4801242EA0363B5F90020E8
S214002CB0E364002A10DB206D28324B0002EB620230
S214002CC003EB5103B2FBF3F3072B20F0700028BF91
S214002CD0072340EA0313236530BC7047D96CCD0741
S214002CE005D4012A1BD9DB6C6FF0FF02BFE7DB6C53
S214002CF0DC0701D5012A08D96FF0FF02B7E7DA6CC6
S214002D00D1070CD5DB6CDB07F6D527288CBF4FF434
S214002D107F424FF4EE42AAE74FF44C52A7E7092849
S214002D20FAD90A3809288CBF4FF47F424FF4EE4296
S214002D309DE700BF00300E406E140020681400208F
S214002D40054A064B06491B68136F23F00703184312
S214002D5010670888FFF778BF00300E408009C6432A
S214002D6066140020C3884A2B70B5044605D9B3F50F
S214002D70FA7F4BD24FF0805000E000202C49B4F987
S214002D800C60CA6C2B4D22F0405323F00103002E3A
S214002D90A8BF43F001030343CB64D1F8E03043F40B
S214002DA04073C1F8E030CB6E43F08073CB66286882
S214002DB0002834D1FFF7C4FF1F4B2049204EA088BF
S214002DC02589A2891A8030800D80FFF73DFFA37BFE
S214002DD04BB3012B16D001210A466088FFF784FE0C
S214002DE0054668B1124A6078D36B43F48063D363B8
S214002DF0FFF710FEA37A134A003318BF01231360AF
S214002E00284670BD0A4B104A9A65E4E740F6C310A0
S214002E10834294BF4FF000504FF04050AEE704207E
S214002E20FFF78EFFC8E7024B084A9A65D3E700BF54
S214002E3000300E408009C643681400206E1400203F
S214002E40661400209407C643372110B777402057F2
S214002E502DE9F047072A9DF820609DF824502AD8CF
S214002E60DFF87CA0DFF87C90DFF87C80DFF87CC0A1
S214002E7001F0030194004FF00F0E0327A040A1407D
S214002E800EFA04FEA740CAF800E0C9F80000C8F829
S214002E900070CCF800101049104C11448900012035
S214002EA000FA02F20B60C1F88060C4F82424C1F86E
S214002EB00053BDE8F087A2F1080401F00301A40066
S214002EC04FF00F0EDFF828A0DFF82890DFF82880F4
S214002ED0DFF828C0D1E700BF8020851000A00040A2
S214002EE000A4004400A4004608A4004408A4004629
S214002EF004A4004404A400460CA400440CA4004609
S214002F00F0B545003AB12E189BBB1C4C3601344434
S214002F1001268E4026602C18240104F180440729DF
S214002F2004F5204415D84FEA810E67680F2606FA86
S214002F300EF627EA060702FA0EF63E4366603AB930
S214002F402844C3B90D4B0001034401228A401A608D
S214002F50F0BD01F18046083EA768B6004FF00F0EA0
S214002F600EFA06FE27EA0E0702FA06F63E43A660AB
S214002F70E5E7034CCAE7024BE5E700BF0CA00044B8
S214002F800CA00046054A064B5168526841F671325D
S214002F901A649A6822F001029A60704700300E4068
S214002FA000000E40034B9A68002122F001029A604E
S214002FB01964704700000E40014B01229A6070476A
S214002FC000500E40144A154B70B400205468144E3E
S214002FD003F148050DE0B2F5006F18D0B2F5803F5A
S214002FE015D0224202D0214208BF10430833AB421C
S214002FF010D03268196812F0040F53F8042CF0D180
S214003000B2F5806F03D0E6D8B2F5007FE9D141F47F
S2140030108071E6E770BC704700500E40BCA104000B
S214003020E841E00F014B1860704700BF0000844283
S2140030302DE9F041857890F801800279837904784B
S214003040C17890F805C090F807E0077A094E280185
S21400305040EA8800204340EA411141EA022141EA61
S2140030600C3242EAC33242EA0E4343EA4743336035
S214003070BDE8F081002004400B4A5169136901F055
S2140030800F01C3F3811343EA81038370136903F0CE
S2140030903F0343709169D36901F0F002C3F3031351
S2140030A013430370704700BFD0FF0FE02DE9F04FC9
S2140030B00C780CB902234360CA7891F802B00B7AF8
S2140030C091F801A091F8069091F8078091F809C050
S2140030D091F80AE0CF7A0E794D79097B120442EA1C
S2140030E00B6B4BEA030343EA8929BAF1000F14BFBE
S2140030F04023002349EA0828BCF1000F14BF8022B1
S214003100002248EA0303BEF1000F43EA020314BF9D
S21400311020220022002F43EA020314BF10220022BE
S214003120002E43EA020314BF4FF400560026002D7B
S21400313043EA060314BF4FF080520022002942EAF9
S214003140030214BF082300231343002242620360D5
S2140031500CB101234360BDE8F08F00BF2DE9F04FAE
S214003160547892F800B0957992F802A0D37892F845
S214003170049092F8078092F805C092F808E0577A13
S214003180967A240644EA8B642C4344EA0A4242EACE
S214003190033242EA8923B8F1000F14BF4FF0804291
S2140031A0002243EA0C23BEF1000F43EA020314BFD9
S2140031B04FF000520022002F43EA020301F10601FD
S2140031C014BF10220022002E43EA02034FEA011128
S2140031D014BF0422002213434350BDE8F08F00BF03
S2140031E070B5044615461E4601B3202E24D01AD9C3
S2140031F0402E16D0602E21D104222368104823F0DA
S2140032006003236005FB02F24901236801EB5201CB
S214003210B1FBF2F2203AD20010401E4326606061F5
S21400322070BD0622E9E756B91022E6E70548FEF724
S214003230CBFB202E0146DAD10822DEE770BD70BD3A
S214003240F8FF7F004041050038B50546144619B919
S2140032500548FEF7B9FB014601396400B1FBF4F1FD
S2140032600902696138BD00BF40410500CB4303F049
S21400327005035B00C360C160704700BF134A144972
S214003280002330B4904240F6AA6541F20504C560BA
S2140032900360446083604361C364816443678367FB
S2140032A0C3670AD002F58062904209D002F58062B8
S2140032B0904202D0836530BC704700230365F9E76F
S2140032C0036530BC8365C365704700BF00000140DE
S2140032D0F9FF0100F8B50C460546FFF7CFFFA37CC3
S2140032E01BB12B6843F080432B60E37C1BB1237D2E
S2140032F043F08003AB65278A607BE6896168A26835
S214003300237B3843304368602846FFF769FFE27D39
S214003310A37D617D12051B0702F4E00203F0E04383
S21400332013432B6619B12B6843F480332B606A6F06
S214003330207E217822F030026A676B6F03436B674A
S214003340E960F8BD70B50C460546FFF797FF238A7F
S214003350A67B2A68207DA17C43F00103002E9BB249
S21400336043EA020314BF4FF48062002213432B602B
S2140033702B68002814BF4FF00052002213432B6026
S21400338019B1E37C43F08003AB65237B6168A268D8
S21400339043F480536B602846FFF756FF637B0BB100
S2140033A01023EB60E27DA37D617D12051B0702F40E
S2140033B0E00203F0E04313432B6619B12B6843F495
S2140033C080332B602378EB6070BD00BF03691B065B
S2140033D0FCD5C069C0B2704703695A06FCD5416384
S2140033E003699B06FCD5C069C0B2704703695B06DB
S2140033F0FCD54163704700BF03695B06FCD5C1631B
S214003400704700BF2DE9F04F5E4C87B024680292EB
S214003410002C00F0B280DFF870C19CF811201AB1C1
S2140034200A2007B0BDE8F08FDFF860A1BAF80650B2
S2140034301E46DCF80830294489B2DB080191009367
S21400344001FB03F5002E49D0DFF844B12544904631
S2140034500127BAF808409CF81020BAF80430241A5D
S214003460B44228BF3446012AA6EB040623D80299A4
S21400347000290CBF4FF0FF094FF00009012A04BFD6
S2140034806FEA09095FFA89F90344072C9BB229D829
S2140034901C44B9F1000F4BD1A3420CD2D90803F05B
S2140034A007006A5C013307FA00F09BB222EA0002CA
S2140034B09C426A54F2D8019B4344591103F01F03FF
S2140034C05BF8212007FA03F31A43009B4BF82120F0
S2140034D01D4408F101080020002EBAD1002007B0D4
S2140034E0BDE8F08FD9086A1813F0070303922ED0B0
S2140034F007FA03F2685C083B013AD2B21C44039B0D
S214003500104029EA0202024301335FEAD40E039315
S2140035106A541ED1039907FA04F30A78013BDBB21A
S21400352003EA090922EA030343EA09030B70C2E728
S214003530A342C0D2D90803F00702685C013307FA39
S21400354002F29BB202439C426A54F3D8B3E74FEAB6
S214003550D40E039BCDF814C01846724673444946F1
S214003560CDF810E0039340F013FDDDF810E0DDF831
S21400357014C0B4EBCE049ED0CCE7012007B0BDE863
S214003580F08F00BF781400207C140020A8140020C0
S214003590D0650020044B1B781BB1044B0360002051
S2140035A070470120704700BFB4140020A814002004
S2140035B070B40E4C247874B10D4C25888618AE4233
S2140035C002DD042070BC70476588CE18AE42F8DC79
S2140035D022B90520F6E7012070BC7047002BF8D012
S2140035E0A080E180228163810020EBE7B4140020F4
S2140035F0A8140020064A30B41478039D24B11A4655
S2140036002B4630BCFFF7FEBE012030BC704700BF23
S214003610B4140020F8B50A4C0A4DA6696168E26841
S2140036202B4607462046B0472B683BB13B60FF2140
S2140036301022054840F0ACFC0020F8BD0B20F8BD79
S2140036407C14002078140020D0650020F8B5194DB1
S2140036502B780BB10020F8BD00F0E2FB00B1F8BDFE
S214003660154E314600F0F6FB00B1F8BD134F384654
S214003670FFF7D0FF0446C8B93B68C3B1B6F804E00C
S214003680B7890F4E4FF0010C07FB0EF301460246BA
S214003690A6F800E07780B080F080A6F808E0778192
S2140036A085F800C0FFF7AEFE2046F8BDF8BD0B203B
S2140036B0DBE700BFB41400207C1400207814002040
S2140036C0A81400202DE9F04F2A4FDFF8AC80BA6826
S2140036D0FB68D8F80040DFF8A49085B000204FEAD9
S2140036E0D20A0122BB460146054603929D420AD2F3
S2140036F014F0010211D001304518EA0612D09D429E
S2140037004FEA5404F4D320BB1B480021102240F09B
S2140037103FFC002005B0BDE8F08F50B901314518D8
S214003720EA06ECD1039E3246013258F82640039250
S214003730DCE77B680190D9F8000000913E6A0AFB3E
S21400374001010C48B0470028E4D1691CDBF80C30B6
S214003750D2E70A4A7B681268009101900AFB0121B1
S2140037603C6A04480022A0470028CDD005B0BDE83A
S214003770F08F00BF7C140020D06500207814002055
S214003780014642698369098A808901320133121A27
S2140037905B1A92B29BB2FFF70BBF00BF0B688A683A
S2140037A0934201DB04207047F0B44D68C9688D422F
S2140037B002DB0420F0BC7047002B0FDB002D0DDB76
S2140037C006683788BA4209DA7688B14206DAC360F4
S2140037D0056142618161F0BCFFF7D2BF0320F0BCF7
S2140037E0704700BF30B587B008B300226FF07F4344
S2140037F042608360044601A8FFF7CCFE054698B9F0
S214003800019B23601A885B880290013A013B2046A0
S21400381002A9039504920593FFF7C0FF054618B961
S2140038202046054900F078F9284607B030BD052542
S214003830284607B030BD00BF30A50400F0B130B553
S21400384090E82800044600201A885B88014683B06A
S214003850FFF7AEFE014670B92268EBB200935489BA
S214003860138903FB04F30193C5F30742C5F307234B
S214003870FFF7C0FE0146084603B030BD05210846E6
S214003880704700BF70B5044682B0B8B10C300E4623
S214003890154600F035F810B9012002B070BDA368D7
S2140038A00124DAB20092B0B2C3F30742A9B2C3F35E
S2140038B007230194FFF79EFE02B070BD052002B0FC
S2140038C070BD00BFC8B170B50C3082B01C460E4645
S2140038D0154600F015F810B9012002B070BDE2B22E
S2140038E001238DE80C00B0B2A9B2C4F30742C4F3BA
S2140038F00723FFF77FFE02B070BD0520704700BFAC
S21400390078B103688B420BDC8368994208DC436815
S214003910934205DCC0688242CCBF0020012070477D
S214003920002070472DE9F04F90F8284085B0022C13
S2140039309DF8387000F08C80203989B20091048C94
S2140039408C4203DC022005B0BDE8F08F90F825100D
S214003950C4690394002900F095800293002690F82D
S214003960243001969046814699F82220012A7CD080
S214003970022A75D1039A009932F81150002B7ED096
S214003980029A019902EB010BDA46002407E0002FA9
S2140039903BD10134A4B29C424FEA550513D2EA0744
S2140039A0F5D5484604EB08015246FFF76BFF0128A1
S2140039B0C9D800B9013699F824300134A4B29C4223
S2140039C04FEA5505EBD3214699F827001A188A4284
S2140039D009DD029A019D55193FBB0134A4B21A189D
S2140039E094422146F8DB019899F82320009C99F828
S2140039F02510013080B21444A2B281420190009298
S214003A00B2D8B6FA86F040099DE7484608EB0401AE
S214003A105A46D9F80430FFF755FF012893D899F88D
S214003A2024300028B5D10136B3E7414448462A463B
S214003A30D9F80430FFF746FF012884D899F82430D7
S214003A4010B199F82700C8E799F827000136C4E7AF
S214003A503A2911D020290CD0303989B200916EE76E
S214003A60039A009932F8215088E7039A0099555C2A
S214003A7084E70B21009162E70A2100915FE719466F
S214003A801C46A1E701205EE72DE9F04F83B0DDF884
S214003A9030809DF834B038B131B190F828403CB948
S214003AA0022003B0BDE8F08F052003B0BDE8F08F1C
S214003AB082B3054699460C468F181E464FF0000AFC
S214003AC013E0CDF800B0284632464346FFF72AFFFB
S214003AD00128E6D808B90AF1010A95F8242095F8D5
S214003AE0273013441E44BC4210D014F8011B0A2988
S214003AF0A1F1200302D05E2BD2D8E2E795F825305C
S214003B0095F82620984490444E46ECE7BAFA8AF098
S214003B104009C6E70120C4E738B108B51C301022BA
S214003B2029B140F037F9002008BD0520704740F065
S214003B302FFA052008BD00BF2DE9F04F664B674AF7
S214003B40186859681C7AD2F8B02089B005AB03C350
S214003B5052071C7040F1B8804FF0000860485F4C78
S214003B60FDF786FE032107465D48D4F89050FEF721
S214003B70FBFA5C48FDF776FED4F8F0300390DB07DE
S214003B8005F0400540F1998000230193FEF7B0FC54
S214003B90554A136813F00104814673D013685349DD
S214003BA0029340F2FF7600234FF00040546A136001
S214003BB0536216620126C1F880010023082205A878
S214003BC08DF816308DF817308DF81820FFF730FA7C
S214003BD04748454A4FF480530360964603685B00A7
S214003BE0036063B1916893689942FCD0DEF80810D0
S214003BF00368013BFDD8DEF808309942EED0036832
S214003C00394ADFF8ECB05B080360D0F800E0924673
S214003C104FF0080C5FEA5E0E19D003684EEA030305
S214003C200360916893689942FCD0DAF8081003683C
S214003C30013BFDD8DAF80830994205D0DBF80030B1
S214003C4023EA0E03CBF80030BCF1010CE2D1484663
S214003C50FEF752FCCEB103992248FEF7D3F8224B6A
S214003C60029A1A605C62019BABB9032F19D1F5B1B9
S214003C70B8F1000F03D01F480021FDF745FD09B03D
S214003C80BDE8F08F0294264697E73046FFF7CAF95C
S214003C90019B002BE9D013480021FDF735FD032FCB
S214003CA0E5D039460E48FEF75FFA002DE0D1012038
S214003CB029462A46FEF7C2F9DAE70A480121FDF747
S214003CC023FD0123019361E70A480121FDF71CFD4E
S214003CD04FF0010842E700BF60A8040000400E4015
S214003CE005002000800912000020044000E100E0EA
S214003CF0480000200025080003460849002B0CD089
S214003D00013B88221202003253430A68D80AD20ABC
S214003D105043800901D00138FDD870474800002084
S214003D2070B5224D224E0FCD88B002AC0FC495E878
S214003D30030084E803001F480121FDF7E5FC1E4848
S214003D400121FDF7E1FC01241C4B0493304602A937
S214003D508DF81640FFF7F6FA2346022006210422C5
S214003D60FFF7CEF82246022007210023FFF7C8F807
S214003D702346022008210422FFF7C2F80421234626
S214003D800A460020FFF7BCF80D4BB3670B2249F23A
S214003D903D6372670193019B002B05DD019B013B90
S214003DA00193019B002BF9DC08B070BD6CA80400E1
S214003DB000040140003508000042040000127A00AA
S214003DC00B0B000B38B5134B10221A601424124844
S214003DD0FF21FFF701FB013CF9D1104B10221A60BE
S214003DE01E240D48FF21FFF7F7FA013CF9D1052400
S214003DF00948FF21FFF7F0FA013CF9D1054B0648C8
S214003E0010251D60B921FFF7E7FA044B20461D6018
S214003E1038BD00BF0CA00044000401400CA00046C2
S214003E200A4A13786BB910B5094C23680121117042
S214003E301BB908E054F8043F2BB198470028F9D086
S214003E4010BD00207047002010BD00BFE814002001
S214003E504C000020094B1B780BB909487047002816
S214003E6001DD0848704710B5074C03462C2208466B
S214003E7002FB03413FF08EFF002010BDE814002037
S214003E800500118002001180BC1400200B4B1B782B
S214003E900BB90B48704710B50A4C2368002B01DDA0
S214003EA0094810BD014609482C2202FB03000133D5
S214003EB023603FF06FFF002010BD00BFE814002015
S214003EC005001180B814002001001180BC140020E9
S214003ED0802901D0094870470949086810B4094C80
S214003EE000EB0212A24205D9002207481A605DF8CC
S214003EF0044B704718600A600020F8E70200118043
S214003F0054000020EC1C002001001180004870477F
S214003F100400118008B500F033F900F0E9F800203D
S214003F2008BD00BF70B51E4653B10C46002520469E
S214003F30102201350021144440F02AF8B542F6D18B
S214003F40002070BD2DE9F04782B00C460A9D0B9FFD
S214003F500E210320013500F043F9ADB2062000F033
S214003F6015F902AE2B0243F0010326F8023D0221AA
S214003F70304600F0E5F807B3013507F1FF384FF09B
S214003F80000A4FF6FF79102120460C4400F0D8F8BE
S214003F90D04505EB0A031CBF1B0243F0FF034FF09E
S214003FA002010AF1010A30460CBFADF80690ADF8E2
S214003FB0063000F0C5F8BA45E5D1022000F0E6F874
S214003FC00E21032000F01AF9002002B0BDE8F087A9
S214003FD008B50D21032000F01FF9002008BD00BF22
S214003FE008B5032021B90F2100F008F9002008BD0C
S214003FF00F2100F0F5F8002008BD00BFF0B58DB029
S21400400000F0BEF800F074F800F0D2F80022134674
S2140040100821022000F0D6F80022134606210220CE
S21400402000F0D0F8002213460E21032000F0CAF854
S214004030002213460F21032000F0C4F80022134686
S2140040400D21032000F0BEF821480021802200F058
S214004050A3F808B10DB0F0BD8023DFF890C01D4C6A
S2140040601D491E4A8DF815004FF0010E1C4F1D4EBF
S2140040701D4D099401A8CDF804C08DF814E00293F4
S214004080049303930697079608950A910B92FFF7F9
S214004090FDFE04460028DDD10F21032000F0A0F825
S2140040A00E21032000F09CF8062000F06FF80CA804
S2140040B0042320F82E3D022100F042F8022000F0F2
S2140040C065F80E21032000F099F820460DB0F0BDEB
S2140040D0D13F0000453F0000253F0000153F00008F
S2140040E0E13F0000D13E00000D3F000084A8040020
S2140040F070B50F4D0F4E0FCD86B06C460FC495E8C9
S214004100030084E803000C480121FDF7FDFA304661
S2140041100A4B02936946FFF715F90A237367B36FD4
S21400412023F01F2343F00B230020B36706B070BDB7
S2140041309CA804000004014000420400E06735002B
S21400414038B505460C465CB1012C0C4801D0EA0790
S2140041500CD5013C15F8011BFFF748F9002CF3D1EC
S214004160064A13699B06FCD5002038BD034835F87F
S214004170021BFFF741F9023CE5E700BF00040140DF
S21400418008B5FFF7D9FC002008BD00BF08B5FFF74B
S214004190B3FD002008BD00BF08B5FCF78FF9034B40
S2140041A0002814BF1846002008BD00BF0200138078
S2140041B008B503480121FDF7A7FA002008BD00BF97
S2140041C00035080010B514460AB1044810BDC0B248
S2140041D00422FEF795FE204610BD00BF01001380A6
S2140041E0C0B200EB4000044B0001034401228A40A9
S2140041F01A600020704700BF0CA00046C0B200EB5B
S2140042004000044B0001034401228A401A6000204B
S214004210704700BF0CA00044C0B200EB4000000195
S21400422000F1804000F5204001238B408361002090
S214004230704700BF00207047FEE700BF4FF40053F2
S2140042404B600020704700BF012070470020704779
S21400425070B5164682B10D46002404E00134A6422D
S21400426005F8010B06D000F0B7F8431CF6D11CB1D8
S214004270204670BD304670BD4FF0FF3070BD00BFA9
S214004280044A05491368002B08BF0B461844106003
S21400429018467047EC1C0020B06C002070B5161E47
S2140042A007DD0C468D1914F8010B00F0C1F8AC427E
S2140042B0F9D1304670BD00BF104838B503691B06FB
S2140042C000D438BD0E4C2568FFF780F80D4A0E4B1B
S2140042D050552268013222601A6801321A6022683C
S2140042E0082A04BF002222601B68074A082BE8DD64
S2140042F006490023236013600B6038BD00000140B0
S214004300001D0020F41C0020081D0020041D0020B5
S21400431070B52948294D2A4E88B00121FDF7F4F9D9
S21400432028480121FDF7F0F9002001460422012368
S214004330FEF7E6FD0020012103460A46FEF7E0FDF3
S2140043400FCD01AC0FC495E80700012384E80700F1
S214004350042200200521FEF7D3FD1B480121FDF7AE
S214004360D3F908A9002401F81C4D3046FEF7B2FF29
S21400437003237367B36F154A23F4F85304204FF4EE
S214004380805123F01F03B367B064C2F88011F36C4A
S2140043900343F364304611600521FEF767FF0C4BBC
S2140043A01B6821469868022223463FF069FE094BA7
S2140043B001221A7008B070BD40410500B4A8040080
S2140043C000000140003508000032040000E100E073
S2140043D098090020FC1C0020114B1B7810B5CBB1AF
S2140043E0FEF786F80F4A1368002B16DD0E4B0F4CAF
S2140043F01968645C1968013119601968082904BFD6
S214004400002119601368013BE4B21360FEF774F8EC
S214004410204610BDFFF77CFFE2E74FF0FF34F5E7DC
S214004420FC1C0020081D0020041D0020F41C002099
S21400443038B5124B1B78044673B1114D11482B78D2
S2140044400BB10A2C11D02146FEF7D0FF2B780BB10A
S2140044500D2C04D0204638BDFFF75AFFEDE709487B
S2140044600A21FEF7C3FF204638BD0D21FEF7BEFF2A
S21400447004482146FEF7BAFFECE700BFFC1C00200C
S214004480F01C002000000140F0B5214B89B01868F0
S21400449059689A68DB6804AC0FC44FF0010E00241C
S2140044A0C8212022A0234FF4E1670F260A2504A87E
S2140044B08DF811E0ADF818108DF81A20ADF81C3004
S2140044C08DF81040ADF81270ADF81460ADF81650C7
S2140044D0FEF748FC08A800F8204DFEF757FA02231E
S2140044E001A88DF805308DF80440FEF759FA02A8A9
S2140044F08DF808408DF809408DF80A408DF80B407D
S2140045008DF80C408DF80D40FEF756FA09B0F0BD58
S214004510D0A8040070B5394E354686B055F8100F51
S214004520EB686968AA682D8A01AC0FC401A82580CB
S214004530FDF778FF3248FCF781FD01210A4602208C
S214004540FDF77CFD01210A460020FDF703FD002152
S2140045500A460320FDF772FD01212A48FDF7D4F82C
S214004560706A0090202368468DF80030FDF798FFAB
S21400457001210A460020FDF761FD4FF40040FCF7DC
S21400458085FD21480221FDF7EFFD20480221FDF7B9
S214004590EBFD1F480221FDF7E7FD1E480121FDF750
S2140045A0B3F81D480121FDF7AFF81C480121FDF7BF
S2140045B0ABF81B480121FDF7A7F81A480121FDF7C3
S2140045C0A3F8194B1A6822F01F021A601A6822F420
S2140045D078721A60D3F8702122F08052C3F87021E6
S2140045E0D3F8702122F00102C3F87021D3F87021AD
S2140045F022F00202C3F8702106B070BDD0A80400F5
S21400460000F049020025080002001A0003001C0002
S2140046100500200000650800005508000045080059
S214004620800912000035080000400E4030B5104BDF
S21400463053F8280F85B059681D7A01AA03C20023D3
S2140046400521012401A815708DF804408DF8053069
S2140046508DF806308DF807308DF809308DF80A3061
S2140046608DF80B308DF80810FEF7E2FC05B030BD73
S214004670D0A80400104A1149F8B51368DFF854E0D2
S2140046800F4E104C104F114D43F480734FF4167CB0
S2140046904FF4F0701360CEF800C0376025600860F5
S2140046A0FFF7F2FEFFF736FFFFF7C0FF084B5A6B27
S2140046B05A639A6B9A63F8BD00000E4094420E400F
S2140046C090420E40FC420E404A5D050028E216006D
S2140046D000600E408C420E4038B50E4C0E4B2060EB
S2140046E019600AB9104638BD02EB4204A40003461E
S2140046F0204615469847094A106038B122460021E0
S2140047003FF046FC064B00201D6038BD4FF4C170DC
S21400471038BD00BF141D0020181D00200C1D0020F1
S214004720101D002000000000044B1B6823B11A88EF
S214004730824201D09B68F9E718467047201D00208A
S214004740084B9A68D00741BF0748016801310160ED
S214004750910741BF0548416A21F0020141621A6192
S214004760704700BF00400440A46C002000200440B6
S214004770024B4FF080525A60704700BF00ED00E0D9
S2140047807047704770B50A4E7468B26823189A422C
S21400479005460BD92A46204600213FF0F9FBE31CCC
S2140047A01D4425F003057560204670BD002070BDD1
S2140047B0201D002007B502AB042243F8041D19464D
S2140047C045F0AEFA03B05DF804FB704770477047DB
S2140047D0704770477047704770477047704770471C
S2140047E070470346800B01280CD002D3022804D160
S2140047F07047181C18BF01207047B3F57F4F2CBFB9
S214004800042003207047094B10B540F201141C60C9
S21400481098600120586011448A4204D0034812F878
S214004820014B8461F8E7D869C04310BD00C0014061
S21400483002464FF0FF30FFF7E6BF38B50446251DA9
S21400484045F076FA28460021FFF7B4FF04F1080089
S2140048500121FFF7AFFF28460821FFF7E9FF0146D1
S2140048602046FFF7A7FF002038BD08B5FFF75CFF1E
S21400487000B1807808BD10B50C46FFF755FF18B19B
S2140048800C302060002010BD40F2025010BD08B56C
S214004890FFF74AFF003018BF012008BD38B50D4CA1
S2140048A0FEF770FB2068FFF7C8FF6068FFF7C5FFDC
S2140048B0094B00221A70094B18681C4620B18568FF
S2140048C03EF09CFF2846F9E72060BDE83840FEF73A
S2140048D069BB00BF7C6600204E050020201D00201E
S2140048E010B5FEF74FFB1A4A1A4C936C9BB29B020C
S2140048F0A3F580532360936C9BB29B02A3F50063E1
S2140049006360206808210430FFF792FF23681B6865
S214004910984202D02068FFF790FF606808210430B4
S214004920FFF786FF63681B68984203D0094B5868F8
S214004930FFF783FF2268636852685B689A42064BFB
S21400494034BF012200221A70BDE81040FEF72ABBD1
S214004950B081E00F7C6600204E050020C0F30A03FD
S2140049600833B3F5006F06D283884FF6FF701B1A24
S214004970584258417047012070472DE9F74F304E96
S214004980304A337859B283F001035BB252F8219073
S21400499052F82370384645F0CBF909F10C0A07F1B6
S2140049A00C08554685EA0A0323F4FF6323F0070341
S2140049B04BBB2846FFF7D2FF834620BBA979281DAC
S2140049C00431FFF735FF2B68984201D12C4607E0EB
S2140049D0AC79033424F0030408342C442546E1E77C
S2140049E0AB7903339B1001335B45F7DB08F1040317
S2140049F0404654F8041B0193FFF7DCFE019B0BF1C5
S214004A00010B9846ECE7D9F804103C1D204601310E
S214004A10FFF7D0FE07F108000121FFF7CBFE204686
S214004A200821FFF705FF01463846FFF7C3FE337837
S214004A30404683F00103337003B0BDE8F08F00BF3B
S214004A404E0500207C6600202DE9F74F1E46584B89
S214004A50174693F90020574B53F82230814603F14E
S214004A600C0A8846FEF78EFA54462046FFF776FF75
S214004A700546002840D1A17904F1040B58460431BC
S214004A80FFF7D6FE2368984224D1A3884B4521D150
S214004A90A3799F420BD1304604F108013A463FF015
S214004AA047F9054618B9FEF77DFA28467DE094E8F2
S214004AB0030002AB03E90300BDF80430DB43ADF8A6
S214004AC004304FF6FF73ADF8063058460199FFF7ED
S214004AD071FE0546A379033323F0030308331C4411
S214004AE084EA0A0323F4FF6323F0070313B9002DB7
S214004AF0BBD053E0002D51D1002F4ED007F1080552
S214004B0063198AEA030323F4FF6323F0070373B1F0
S214004B10FFF733FFC0F30A0304461BB11D44B5F587
S214004B20006F04D9FEF73EFA40F201503DE047EA36
S214004B300828ADF80490ADF8068004F10408404655
S214004B400199FD1CFFF736FE04F1080925F0030560
S214004B504D44C0B9A94506F1040614D016F8011C48
S214004B6016F8043C43EA016316F8031C43EA0123E3
S214004B7016F8021C484609F1040A43EA0141FFF709
S214004B8019FED146E5E7391D4046FFF751FE0146BE
S214004B902046FFF70FFE054600E03D46FEF702FA08
S214004BA0002D0CBF00204FF4C67003B0BDE8F08F98
S214004BB04E0500207C66002030B5441EA4B24FF699
S214004BC0FD75AC4202D8BDE830403DE74FF4C070FA
S214004BD030BD38B50546FFF7A7FD044648B1284660
S214004BE00221A27804F10C03FFF7E6FF0020A08064
S214004BF038BD40F2025038BD70B506460D46FFF788
S214004C0093FD044688B125B10C302946A2783FF0C2
S214004C10C1F8A388E28801339BB29A42A38007D8E2
S214004C203046BDE87040FFF7D4BF40F2025070BD7A
S214004C30002070BD2DE9F8431E462C4B154693F90F
S214004C4000202B4B53F822400C3480460F46A146DA
S214004C504846FFF783FE18B140F20250BDE8F883DD
S214004C6099F8061009F104000431FFF7E1FDD9F8C0
S214004C7000308342B9F806304FF0FF02B3FBF2F281
S214004C80C2EB0222A3EB02039BB203F1030323F061
S214004C90030303F108034B4483EA040222F4FF6291
S214004CA018BF08F1010822F0070218BF5FFA88F85B
S214004CB0002AD1D108F1FF32D2B2B8F1000F02D0EB
S214004CC099469046C4E7B9F804303B801DB1B9F860
S214004CD006301B0A2B70B9F80630089A337009F1B3
S214004CE0080313600020BDE8F88300BF4E050020CF
S214004CF07C660020431EF7B59BB24FF6FD729342CA
S214004D0006460F4636D81D4B93F900201C4B53F829
S214004D102250FEF737F90C352C462046FFF71EFECC
S214004D2018B1FEF73FF9002026E0A38873401F4223
S214004D3011D194E8030002AB03E90300BDF8043088
S214004D40DB43ADF804304FF6FF73ADF80630201D98
S214004D500199FFF72FFDA379033323F003030833EC
S214004D601C4484EA050323F4FF6323F00703002BA7
S214004D70D3D0D6E740F2122003B0F0BD4E05002097
S214004D807C66002070B5154B93F90020144B53F841
S214004D9022500C3506462C462046FFF7DFFD08B1AC
S214004DA0002070BDA179201D0431FFF741FD236866
S214004DB0984202D1A388B3420ED0A379033323F0DE
S214004DC0030308331C4484EA050323F4FF6323F03B
S214004DD00703002BE0D0E3E7204670BD4E05002019
S214004DE07C66002008B5FFF7CDFF00B1807908BDCE
S214004DF070B50C4616461D46FFF7C4FF38B904B119
S214004E0020700023337040F202502B6070BD14B146
S214004E10C188090A2170C3883370083028600020D2
S214004E2070BD13B5144601AB0DF10302FFF7E0FFAA
S214004E3060B99DF8031049B1019A012913782380BF
S214004E4006D9527843EA0223238001E040F202505A
S214004E5002B010BD1F4B07B5986800F16043B3F56C
S214004E60004F07D300233F21009301931A4A0B46B5
S214004E70FDF74EFB00201949FDF742FB01201849BB
S214004E80FDF73EFB04201749FDF73AFB05201649BF
S214004E90FDF736FB06201549FDF732FB07201449BF
S214004EA0FDF72EFB08201349FDF72AFB1A201249AE
S214004EB0FDF726FB1C201149FDF722FB1D2010499B
S214004EC0FDF71EFB0F49202003B05DF804EBFDF74D
S214004ED017BB00BF00ED00E0002F0020F11400001B
S214004EE039A5020041A0020029A502002DA5020056
S214004EF0799F020035A50200790F0000459F020049
S214004F0031A502008D89020040B241F00101FDF793
S214004F10F7BA074A074B11685B6812689142F8D1E6
S214004F20DA0B42EA4142C3F30E0302608380704705
S214004F30A46C002000400440014B01225A617047D7
S214004F4000400440014B5868704700BF00400440D2
S214004F50034B18625A6942F002025A61704700BF5A
S214004F600040044008B540B107491E2041F0010149
S214004F70FDF7C6FA054B01225A61054B4FF08042F9
S214004F80C3F880211A6008BD414700000040044075
S214004F9000E100E01E4B8022202183F80C2383F8DA
S214004FA00D2383F8142383F8152383F8262383F828
S214004FB0272383F8162383F80E2383F8172383F812
S214004FC00F2383F8112383F80A2383F8122383F828
S214004FD00B2383F8132383F8192383F81B2383F802
S214004FE01E1383F81823402283F8011383F8041352
S214004FF083F8051383F8061383F8071383F808135A
S21400500083F81C1383F81D1383F8222C704700BF07
S21400501000E100E00B4B10B50446186868B9631C45
S2140050200DD0094B1B7B53B9012C09D9074B5B6884
S2140050301C442046FFF78CFF01E0002010BD2046F0
S21400504010BD00BF68290020201D0020004004403D
S214005050F8B5FDF74DFA0446FCF77EF9012804D8AA
S2140050600220FCF74FF900261FE01C4A1C4D536B2C
S214005070516BC3F3031301F00F0135F8130035F835
S214005080113018490344086810F440709BB219D1D7
S214005090D233184480B234F081FC134B4FF0804278
S2140050A0C3F8802106460028DAD0104F7D68FCF74A
S2140050B0F1F87B685D1B33F07DF956B90220FCF7EA
S2140050C035F906E0526A12F0005F14BF1E20002079
S2140050D0DEE72046FDF710FA2846F8BD00400E40F1
S2140050E008A9040000300E4000E100E00040044043
S2140050F008B5FFF78FFF18B1BDE80840FFF7A8BF57
S21400510008BD0020704770477047064B08B118600E
S21400511070470549054A1A606FF0010041F0010129
S214005120FDF7EEB9A86C002051640000714700003E
S214005130044A52E8003F002342E800310029F7D134
S214005140704700BF3C660020054A52E8003F034314
S21400515042E800310029F7D1024B1B68184700BF10
S2140051603C660020A86C0020012070470120704794
S21400517008B518B107480849FCF76AF8074AD2F894
S214005180B03043F05403C2F8B030BDE80840FFF733
S21400519001BF00BF814700008347000000400E406B
S2140051A0024B186800B10430704700BF7C2E002008
S2140051B0034B186818B102681A603EF01FBB7047B0
S2140051C07C2E0020024B1B6803B11847704700BFB7
S2140051D00030002008B5431C1EBF4FF47A73C0038E
S2140051E0B0FBF3F0FFF784FF4FF47A735843C00B1D
S2140051F008BD10B50446002002460146FCF7AAFE8C
S21400520011200521FCF7B0FF00210A460220FCF71A
S21400521015FF0E4A0E48136B23F47F2323F4006316
S2140052201363136B00EAC4201843012110630A4677
S2140052300220FCF703FF11200421FCF795FF002055
S21400524001460122BDE81040FCF784BE00400E4037
S21400525000F80F0007B5322000210DF10602FFF717
S214005260E0FD18B9BDF80600FFF7C3FF03B05DF810
S21400527004FB704710B504464FF49870A047064BE1
S21400528018604FF49870A047044B18604FF498705D
S214005290A047034B186110BDE41D0020E81D002048
S2140052A0201D002010B50B460146044611F8012BC0
S2140052B018463EF06FFD2278026110BD10B5054B12
S2140052C01C78012844EA00041C7004BF59709A70C8
S2140052D010BD00BFDC1D0020024B5A7802809B7870
S2140052E00B807047DC1D0020014B1860704700BF24
S2140052F04868002008B503F04FF903F047F903F0BB
S2140053003FF903F061F903F065F903F057F903F08C
S2140053104FF903F047F9034803490022BDE8084067
S21400532033F0A0BE48660020556000002DE9F74324
S21400533080460D4691461E46FFF7F6F9074668BBBF
S21400534005F10C0033F052F9044620B3164B857075
S2140053501A68A0F80080826018608780A0F806901F
S2140053600DF1060140460DF107023346FFF740FDFA
S2140053700C3440B10A9B01221A70204639462A4650
S2140053803EF006FE04E0204631682A463EF002FD66
S2140053903460002004E04FF4C17001E04FF4C070A8
S2140053A003B0BDE8F08300BF201D00202DE9F041CA
S2140053B01D4691F900309DF81860002B044688467B
S2140053C017460FDA101D204433F010F900B30023FF
S2140053D00360104B1A6812B113461268FBE7186098
S2140053E0031D01E00C4B1B681846414622463EF062
S2140053F0D1FC6FB1022E204429463A4604D1002340
S214005400BDE8F04133F000BABDE8F0413EF0C2BC62
S214005410BDE8F0817C2E0020E81D002010B59DF828
S21400542008400294BDE81040C0E7F0B591B00DF119
S214005430260304460021008809AA21F043F8064600
S2140054400346002840F05D81658840F29A239D421D
S21400545018D1B24B22881A80BDF82610B04BBDF882
S21400546024008DE868000B461FF00AFEAD49AE4BDF
S2140054700B600123888032460093062049E1AB4248
S21400548006D0013614237343A84A9B5A002BF6D144
S21400549048F218039D4200F0F48035D8B5F5004F69
S2140054A000F0DC8018D8002D00F0C680012D40F0FA
S2140054B02681277AE679029546EA07260096002591
S2140054C0974EBDF82400BDF826102288A3880196C2
S2140054D003951FF021FD09E148F209039D4200F003
S2140054E0818048F212039D4240F009818C4E01955E
S2140054F00025BDF82400BDF826102288E379009622
S21400550002951EF04DFFF1E048F241039D4200F087
S21400551085802AD848F238039D423FD048F23A03A5
S2140055209D4240F0EC8094F80AC0677A804B94F86D
S21400553008E0039547EA0C27009794F80CC0E77A32
S214005540BDF82400BDF82610142202FB063647EAF2
S2140055500C27E37901970025714F0495228802975E
S214005560B56A43EA0E23A847C0E048F245039D42C9
S21400557046D048F246039D4240F0C180E679009648
S2140055800295674EBDF82400BDF826102288A38831
S2140055900196002503951FF087FDA7E0677A009720
S2140055A0A77A0197E77A029794F80DC0277B604B9D
S2140055B094F808E0069547EA0C27142202FB063604
S2140055C00397E379A78804970025554F0795BDF8FC
S2140055D02400BDF8261022880597B56A43EA0E23F4
S2140055E0A84783E04E4E01950025BDF82400BDF87F
S2140055F026102288E379009602951EF001FF75E0DA
S214005600474E01950025BDF82400BDF826102288D7
S214005610A388009602951FF01FFD67E0404E019597
S2140056200025BDF82400BDF826102288A388009621
S21400563002951FF0B5FC59E0277AE679BDF82400FC
S214005640BDF826102288A388029546EA072600960B
S214005650334E019603951FF076FC47E0277AE679ED
S214005660029546EA0726009600252D4EBDF8240032
S214005670BDF826102288A388019603951FF0D2FB5A
S21400568034E00AAF0021182238463EF081FCA27BA7
S214005690637B94F80AC0667A94F808E0049543EAB7
S2140056A00223ADF82830227CE37B8DF83C2046EAC6
S2140056B00C2643EA0223009694F80CC0E67AADF86E
S2140056C03A30637C8DF83D3046EA0C26E379019645
S2140056D00025134EBDF82400BDF826102288029738
S2140056E00396059543EA0E231FF0FAF962782378AD
S2140056F00C4943EA0223094A8880138003E040F2FB
S214005700831308498B80084B0B6001230093062007
S21400571000221346FFF74AFE11B0F0BD401D0020E0
S214005720E95B0000106800202002150620A904008E
S21400573008A90400F0B587B006460021008805AA2F
S2140057400DF1160320F0BEFE0446002840F09B80B4
S214005750758848F212039D426BD029D848F2090397
S2140057609D425BD011D848F208039D4240F08380EA
S2140057704B4BBDF81400BDF81610328802948DE825
S214005780280023461FF054FD73E048F20C039D42A8
S2140057905AD048F20F039D426DD1BDF81400BDF8F3
S2140057A016103288009501943D4B1FF0B9FD60E05D
S2140057B048F226039D4252D010D848F215039D4267
S2140057C059D1374FBDF81400BDF816103288B3888B
S2140057D00097019502941FF0DFFC4AE048F242036E
S2140057E09D4210D048F246039D4244D12C4FBDF84E
S2140057F01400BDF816103288B388009701950294FD
S2140058001FF07EFC35E0BDF81400BDF81610328897
S21400581000950194224B1FF0ADFB2AE0BDF8140062
S214005820BDF816103288009501941D4B1FF0C0FD80
S2140058301FE0BDF81400BDF81610328800950194DC
S214005840174B1FF085FD14E0BDF81400BDF81610C8
S214005850328800950194124B1FF092FD09E0BDF8C6
S2140058601400BDF816103288009501940C4B1FF0FA
S21400587043FD044601E040F283147278337843EA2D
S2140058800223084A13800849084B0B6000220123B4
S2140058908C80062000931346FFF788FD07B0F0BD06
S2140058A0E95B0000401D002010680020200215055E
S2140058B070B586B004460021008805AA0DF11603CF
S2140058C020F000FE054600BB61882FF043FAB8B909
