S0170000736F632D62746D6573682D6C696768742E733337A3
S214000000000001207913000075130000751300002E
S21400001075130000751300007513000075130000BB
S21400002075130000751300007513000075130000AB
S214000030751300007513000075130000751300009B
S214000040B518000075130000751300007513000046
S214000050751300007513000075130000751300007B
S21400006075130000A914000051150000910B000044
S214000070CD450000751300007513000075130000D1
S214000080751300007513000071150000751300004D
S214000090751300007513000075130000751300003B
S2140000A0751300007513000075130000751300002B
S2140000B0751300007513000075130000751300001B
S2140000C0751300007513000075130000751300000B
S2140000D075130000751300007513000075130000FB
S2140000E075130000751300007513000075130000EB
S2140000F075130000751300007513000010B5054C4D
S214000100237833B9044B13B10448AFF300800123BE
S214000110237010BD001100200000000098F10400BC
S214000120084B10B51BB108480849AFF300800848D3
S214000130036803B910BD074B002BFBD0BDE8104089
S214000140184700BF0000000098F1040004110020CA
S2140001504C10002000000000154B002B08BF134B6E
S2140001609D46A3F5803A00218B460F461348144A55
S214000170121A44F019FB0F4B002B00D098470E4B79
S214000180002B00D098470020002104000D000D48E9
S214000190002802D00C4847F0CDFB43F00BFF2000B0
S2140001A0290000F05BFD43F0F5FE00BF00000800EC
S2140001B000000120000000000000000000110020E8
S2140001C0D06C002035790400918B04002DE9F043B3
S2140001D0214D0378214F83B0014600260A2B0C469A
S2140001E009D00BB907E01BB114F8013F0A2BFAD16E
S2140001F0621AD2B242B923780A2B24D02146002BA9
S214000200ECD103B0BDE8F08395F82690286895F801
S214000210253095F824C097F800E0B0F800800E4826
S214000220019612FB0CFC4B4403FB0E935FFA8CFE0C
S214000230DBB2CEEB080E0093CEF3470303F0AEFD21
S21400024023780A2BDAD13A78637801323A70611C47
S214000250002BC3D1D5E700BF201100204C11002091
S21400026038B5054603F066FF00B1FEE703F078FBFD
S21400027000B1FEE7084C204603F03EFC034600B102
S214000280FEE76FF07F4220460449A360626003F0F9
S214000290CDFD034B1D6038BD2011002044AC04008A
S2140002A01C11002010B50446084803F051FC084A0B
S2140002B0084B106800221A70FFF788FF2046FFF7E9
S2140002C085FFBDE8104003F087BB00BF201100206B
S2140002D01C1100204C110020704700BF704700BF63
S2140002E0704700BF30B5094A87B00023D578009321
S2140002F00146012402AA41F206008DF809508DF845
S214000300084004F0C3FD07B030BD00BF1412002043
S21400031030B5094B87B000241D780094014623466B
S21400032002AA4FF480508DF809508DF8084004F06A
S214000330ADFD07B030BD00BF1412002010B504217B
S2140003400A460520002302F065FF05200146042228
S2140003500023BDE8104002F05DBF00BF10B50446A4
S214000360FFF7D6FF00B110BD024621464FF480507D
S214000370BDE8104004F0CCBD70B50F4C0346B0B0DD
S214000380013904EB411030AD194644F001FB00235F
S21400039005F8C03D04F1C0062146284644F01EFB81
S2140003A020342846054944F019FBB442F4D12846C7
S2140003B0FFF778FF30B070BD54110020FCA9040090
S2140003C008B504210448FFF7D7FF044B102120226C
S2140003D019601A6008BD00BFA0A50400FCA0004478
S2140003E010B50E4C0E49206844F2040304228380A4
S2140003F08271073044F0DAF821680A4841F8040BA5
S21400040006F04AFB084B1B68998809B9084610BDD8
S214000410064844F01BFA4FF0FF3010BDDC1D0020EC
S2140004201412002020070D02E01D0020ACA50400D9
S2140004302DE9F04389B0234D119E2348BDF8408036
S2140004409DF850400F46A978914644F0FFF9717820
S214000450AB788B4231D01D4844F0F8F97378AB7016
S214000460FFF7BEFF04F0020202F0FF037AB9AD7890
S21400047000933946072404AA41F204008DF811506F
S2140004808DF8104004F002FD09B0BDE8F0830020AE
S21400049004ABAD78009301900290039039464A462B
S2140004A04346072441F204008DF811508DF81040A1
S2140004B004F0A0FC09B0BDE8F083054844F0C6F996
S2140004C0D0E700BF14120020E0A5040038A6040000
S2140004D00CA604002DE9F043244C89B0E078BDF862
S2140004E04080119D9DF850700E469146E0B1204B1D
S2140004F02049012808BF19461F4844F0A7F96B7821
S214000500E2789A422ED08BB91C491D4844F09EF9D9
S2140005106B78E370FFF764FFBB070DD43046FFF738
S214000520E1FE09B0BDE8F0831449E5E7104A114939
S214000530012B08BF1146E8E7002004ABE5780093DE
S21400054001900290039031464A464346012441F208
S21400055006008DF811508DF8104004F04BFC09B0E1
S214000560BDE8F083074844F071F9D5E7141200207F
S21400057064A6040058A6040068A6040060A604004A
S21400058094A604000CA604002DE9F04F8BB00F468D
S214000590159DBDF850906B78169CBDF85C609DF874
S2140005A06080DFF8A4B29246002B40D19449954A69
S2140005B00B780133DBB2A2FB0302520802EB4202C5
S2140005C09A1AD2B20B708BF80020002A00F0DB805B
S2140005D0012A0CBF8C488D480521FFF7CDFE6B78AD
S2140005E0002B56D18A49DFF864B28A482246334641
S2140005F044F02CF99BF800206B789A4200F0F680C5
S2140006008549834A8548002B08BF114644F01EF9E9
S214000610002C71D1002E6FD16B788BF800308BF8E0
S2140006200130002B40F0A580FFF7CAFE80E09BF863
S214000630003083BBDFF818C2CDF814C0DCF8000029
S21400064042F0E8FE6CA3D3E9002342F083FD43F0BA
S21400065067F907EE100AB5EEC07AF1EE10FADDF88B
S21400066014C06F4A6F4B51BF8CED007AF7EE007ADC
S214000670B0EE677ACCED007AD2ED007AF8EE677AC3
S21400068067EE877AFCEEE77AC3ED1B7A6B78002B71
S2140006908CD06149A7E7012B7BD0022BF9D1DFF87C
S2140006A0B4C1CDF814C0DCF8000042F0B3FE52A38B
S2140006B0D3E9002342F04EFD43F032F907EE100A6C
S2140006C0B5EEC07AF1EE10FADDF814C0544A554B78
S2140006D051BF8CED007AF7EE007AB0EE677ACCED7B
S2140006E0007AD2ED007AF8EE677A67EE877AFCEE4B
S2140006F0E77AC3ED237AC9E769784B484B4A4C4BF7
S2140007008BF801101025202105601B681160494AEE
S214000710494804EBC634A2FB04241946A40937252D
S21400072001225C601D725A7241F8040B06F0B4F99F
S214000730FFF756FE18F0020F05D13846FFF7E8FD22
S2140007400BB0BDE8F08F002406A89BF80050009080
S2140007500194394652464B46029403944FF4805017
S2140007608DF819508DF8184004F044FB0BB0BDE826
S214000770F08F04213148FFF7FFFD2C4B102120227B
S21400078019601A60D4E72E480521FFF7F5FD6B784F
S21400079026E7DFF8C4C0CDF814C0DCF8000042F04D
S2140007A039FE15A3D3E9002342F0D4FC43F0B8F891
S2140007B007EE100AB5EEC07AF1EE10FADDF814C0B6
S2140007C0174A184B51BF8CED007AF7EE007AB0EE60
S2140007D0677ACCED007AD2ED007AF8EE677A67EEAB
S2140007E0877AFCEEE77AC3ED1F7A4FE7154844F0A8
S2140007F02DF89FE7AFF300809A9999999999B93F98
S21400080050110020ABAAAAAAB4A60400BCA60400F5
S21400081060A60400C4A6040064A6040004A704009E
S2140008202012002000800140FCA00044FCA00046EE
S214000830DC1D0020D34D621020060C0020A704000B
S214000840B0A604000CA604005111002014120020CB
S214000850200000203000002028000020F8B54F4C73
S2140008604F495048504F082204F018FA002104223D
S214000870204643F099FF3B684C48194644F2040270
S2140008809A8041F8040B06F007F9494B1B689E88CE
S2140008902046002E79D1D91D9A7943F087FEE57857
S2140008A0012D60D04FD3022D24D1424843F0CEFF15
S2140008B0227863789A424ED0A0783F4D04F096F89E
S2140008C004463E4843F0C2FF3D4B3E4A3E48202188
S2140008D010262E6019603B68E403A2FB0424194628
S2140008E0A409372501225C601D725A7241F8040B78
S2140008F006F0D2F8FFF774FD0021344A344B354C2D
S2140009004FF4805004F0F0F90021334A334B41F2A3
S214000910070004F0E9F90021314A324B41F20400A5
S21400092004F0E2F92088FFF719FD24882046FFF737
S214000930D9FC00B1F8BD214641F206000122BDE80F
S214000940F84004F0E5BA284843F080FF2670667049
S214000950FFF736FDCEE7254843F078FF23788BB9BE
S214000960FFF72EFDC6E7224843F070FF21482570AA
S21400097004216570FFF700FD114B1021202219603D
S2140009801A60B7E71B480421F4E70021042243F06D
S2140009900BFF194843F05AFFAEE700BF14120020C1
S2140009A01540040005400400DC1D002020020D0355
S2140009B0E01D002090A70400FCA00044B0A704009F
S2140009C0FCA00046D34D621020060C0089050000EE
S2140009D0D90200002C000020D5040000DD02000033
S2140009E031040000E102000058A70400D4A7040068
S2140009F074A7040020A7040028A70400002070475E
S214000A0008B50021C022064843F0CEFE0548FFF791
S214000A1027FC05480221BDE80840FFF7ADBC00BF33
S214000A2054110020ECA7040018A8040030B587B0C5
S214000A30427803781A4901A843F0AAFF01A9194889
S214000A4043F004FF01A844F0B7F9C4B2FB2C0DD95B
S214000A50154B1B684FF4C5719980144843F0F6FE99
S214000A6001A80121FFF788FC07B030BD104D2868AB
S214000A7000230322C3800472828001A92246093023
S214000A8043F094FD0B4829682402204441F8040BE7
S214000A9006F002F8044B1B6899880029E0D0DCE7D2
S214000AA028A804003CA80400E01D002050A804006C
S214000AB0DC1D002020050A0210B5104C104A637891
S214000AC0104911482370002B08BF114643F0BEFEA4
S214000AD0237883B104210D48FFF74EFC0C4B102100
S214000AE0202219601A60FFF77BFC0A4BBDE8104015
S214000AF01888FFF733BCFFF763FCF4E714120020F6
S214000B0060A6040064A6040090A8040020A70400C1
S214000B10FCA000462C00002038B51548154C43F0C4
S214000B2095FE15480221FFF727FC144B1B78FF2B78
S214000B3007D0226812481371114641F8040B05F0DD
S214000B40ABFF21680F4841F8040B05F0A5FF2368AA
S214000B500D4819464FF480354D2401225D601C7205
S214000B605A72BDE8384041F8040B05F095BF00BF47
S214000B70B8A80400DC1D0020C8A80400240000203B
S214000B8020010B0220000D0120060C0000000000D2
S214000B90F8B52F4B2F4C1888012262616428636ECB
S214000BA033D842F025FC28A3D3E9002342F086FC84
S214000BB002460B4600202849E56942F0CBFA064675
S214000BC00F46284642F004FC32463B4642F076FC8E
S214000BD042F086FEE067E06942F0FAFB02460B460A
S214000BE03046394642F06AFC42F07AFEE066E0693A
S214000BF042F0EEFB02460B463046394642F05EFCBB
S214000C0042F06EFEC4F88C00F8BDE26993420CBF59
S214000C1000230133E3660F4B5A6F4AB1013ADA6795
S214000C200C4BD3F8842052B9DA69C3F88C20F8BD8F
S214000C30DA69DA67074BD3F88420002AF4D0013A41
S214000C40C3F88C20F8BD00BF7B14AE47E17A843F22
S214000C502E000020008001400000F03F2DE9F04FFC
S214000C6089B003F0E7F903F037FAC948DFF89C8348
S214000C70C84EC94CDFF898A3DFF89893C74D02F02A
S214000C8087FC03F081FEC64806F08AFC0DF008FDDE
S214000C900DF024FD0DF0FEFC0DF0C2FC0DF0EAFC9C
S214000CA00DF0E2FC0DF0C2FC0DF00CFD0DF0D0FCDA
S214000CB00DF0FCFC0DF0C0FC00F044FB03F0B2FCB1
S214000CC0FFF73CFB012213460520062102F0A2FA9C
S214000CD0012213460520072102F09CFAFFF790FE3A
S214000CE0B048012100F0F2FEAF48012100F0EEFE10
S214000CF004210A460520002302F08CFA04210A4645
S214000D000520002302F086FA05200146042200236F
S214000D1002F080FA052001460422002302F07AFA47
S214000D20002001460346042202F074FA03200A213A
S214000D300422002302F06EFA03200C210422002372
S214000D4002F068FA03200B210422002302F062FA64
S214000D50D8F83430954A23F01F0343F01203C8F83E
S214000D603430D8F830301068516843F00103C8F8C2
S214000D703030D8F8343023F4F85343F49053C8F89E
S214000D803430D8F8303043F00203C8F83030D8F8A2
S214000D90343023F4F81343F49013C8F83430D8F8FA
S214000DA0303043F00403C8F8303001AB03C3118978
S214000DB0927A19809A70404601AA002102F058FBE8
S214000DC0404601AA012102F053FB01AA4046022137
S214000DD002F04EFB764800F0D9FF764BA3FB0023CB
S214000DE0DB0BC8F81C30D8F81C30C8F86C30724BD7
S214000DF0D8F81C201A60D8F81C30C8F87C30D8F810
S214000E001C30C8F88C30002304930122404605931A
S214000E1006938DF81C3004A906238DF810208DF853
S214000E2011208DF8123002F0CBFADFF8EC8105F0D5
S214000E30EBFF0168614A21F47F4121F007019142EE
S214000E40834600F03B8116D9A94200F0138150D9A1
S214000E505B4B994200F024817AD95A4B994200F0B4
S214000E60928003F18073994218D1574843F0EEFC04
S214000E70FFF752FEDBE7554A914200F0238111D876
S214000E80A2F59812914200F05A8102F50022914292
S214000E9000F01F814E4B994200F0C0804D4843F051
S214000EA0D5FCC4E74C4A914200F097814B4B9942DF
S214000EB040F0DD814FF0000BAAF800B0FFF7CEFC43
S214000EC0BAF80010464843F0C1FC33684548C3F8FA
S214000ED004B01946422283F809B01A7241F8040B8E
S214000EE005F0DAFDFFF76CFA3F480221FFF744FAF7
S214000EF09DE7414500F089813C4A914240F0B2812D
S214000F003B4843F0A3FC32689BF80CE082F804E010
S214000F10042353725823D372022313733C23537152
S214000F20D3710023114693711372937299F80030AF
S214000F303048314A41F8040B013382F800E089F862
S214000F40003005F0A9FD2D480321FFF715FA6EE7DE
S214000F5003F17F439942A1D18188294843F076FC6A
S214000F6028480221FFF708FA31681E4B4FF48032FA
S214000F704A604E220A7201224A72184641F8043B21
S214000F8005F08AFD53E7204843F060FC4FE700BFBA
S214000F9000040140DC1D002018120020A0001406EA
S214000FA068A5040000350800000204005CA50400E3
S214000FB040410500C1350E8120120020A000080225
S214000FC0A0001408A0001409E8AA0400A0001F004E
S214000FD0A000010090AB0400A0000801A0001401CE
S214000FE028AA040020060C00A4A90400A0000805F6
S214000FF00CAB0400200908002400002038AB0400D5
S2140010004CAA04006CAA040098AA040000800140C0
S2140010102C0000201C120020A0001404A14B1B680A
S214001020002B3FF425AFA04B1B68002B3FF420AFEE
S21400103031689E4841F8040B05F02EFD9C4B18685D
S2140010400430FFF7F3FC33689A480322DA80002264
S2140010509A7201221A719A81194602225A715A729C
S21400106004221A72DA7241F8040B05F015FDFFF738
S21400107065F9DCE6904843F0E9FB90480221FFF76B
S2140010807BF931688E4B4FF400524A6042220A7256
S21400109000224A72184641F8043B05F0FDFCC6E6FD
S2140010A090F804C0874B8849B0F805208748BCF103
S2140010B0000F08BF194643F0C9FBB8E6844843F062
S2140010C0C5FBB4E6834843F0C1FB584603F046FE32
S2140010D0ADE6814A31684FF6FC608880104641F8DC
S2140010E0042B05F0D9FC7D4843F0B0FB9BF80420A8
S2140010F0002A00F0C280BBF80510DBF8072078480D
S21400110043F0A4FB9BF806309BF8052042EA032335
S214001110744A00211380AAF80010FFF79FFB724B59
S214001120724A1978724B7348002914BF1146194643
S21400113043F08CFB70480221FFF71EF977E603792F
S214001140373B172B3FF673AE01A252F823F000BFD1
S214001150D51100002F0E00002F0E00002F0E0000ED
S2140011602F0E00002F0E00002F0E00002F0E000086
S2140011702F0E00002F0E00002F0E0000C5110000DD
S2140011802F0E00002F0E00002F0E00002F0E000066
S2140011902F0E00002F0E00002F0E00002F0E000056
S2140011A02F0E00002F0E0000B1110000B11100003C
S2140011B03168524B00220A71184641F8043B05F08C
S2140011C0ADFC34E64E4B10212022C3F80811C3F8BC
S2140011D008212CE6FFF770FC29E68188494843F091
S2140011E035FB494899F800304849FF220270002B29
S2140011F03FF41DAE013BDBB20B70002B7FF417AE45
S21400120043480321FFF7B8F811E69BF804109BF853
S2140012100520404843F01AFB9BF806100022226087
S21400122059B15A443C48D17943F010FB22689BF8E8
S214001230063001329A422260F3DB3848384F43F0DA
S21400124005FB9BF815209BF816303649364843EACE
S21400125002231A463B8043F09BFB33480621FFF7E8
S2140012608BF8E4E5314B99427FF418AEDFE5A3F541
S214001270881399427FF412AED9E52D4843F0E6FA7A
S21400128002212C48FFF778F82B4843F0DFFA2B4B67
S2140012902B481B68194603221A7141F8040B05F007
S2140012A0FBFBC4E5982114429C2114422000010354
S2140012B0E01D0020200A140500AA040018AA040055
S2140012C020060C00E0A80400E8A8040078AA0400A1
S2140012D044AB0400B0AA04002002010A44A904009A
S2140012E058A904004E1100201412002064A6040021
S2140012F060A6040084A90400A4A90400200101013A
S21400130000A0004070AB0400240000201C12002047
S2140013101CA70400F4A804003CA90400ACA7040021
S2140013201E12002038A9040048300020A000030345
S214001330B0A90400C8A90400D8A90400DC1D002038
S2140013402001140130B50A4D0FCD87B001AC0FC493
S2140013502B6823604FF0FF3001A921F0B2F820B9C6
S2140013604FF0FF30012121F0A6F807B030BD00BFD6
S214001370A4AB0400FEE700BF08B500F06DF8094A0C
S214001380094B9A420CD2D043184420F00300074B76
S2140013900430184453F8041B42F8041B8342F9D166
S2140013A0FEF7DAFE0000002050100020F4F30400E0
S2140013B00048704700F049020F4BD3F8943003F012
S2140013C00703032B14D0042B0FD0022B0AD00B4B91
S2140013D01868094BD3F80031C3F304230133B0FB7C
S2140013E0F3F07047064B1868F3E7064B1868F0E70B
S2140013F04FF40040EDE700BF00400E4040000020E4
S214001400380000203400002008B5FFF7D5FF054B54
S214001410054AD3F80831C3F308230133B0FBF3F0D1
S214001420106008BD00400E403C000020014B1868CC
S214001430704700BF38000020054A064B1060D3F8FE
S214001440943003F00703022B00D07047FFF7DCBF91
S2140014503800002000400E40034AD2F8883043F49B
S2140014607003C2F88830704700ED00E04FF400408B
S214001470704700BF4FF47A70704700BF014B186882
S214001480704700BF34000020054A064B1060D3F8B2
S214001490943003F00703042B00D07047FFF7B4BF67
S2140014A03400002000400E402DE9F8431A4B1A6E17
S2140014B0D96E11EA02081DD4184C194F9946012618
S2140014C0002516EA080F0CD02368C9F8686028467D
S2140014D03BB1A16862680131A1609847637B012B2C
S2140014E009D00135082D4FEA460604F11004E8D16C
S2140014F0BDE8F883FEE707EB451303F1080218334F
S2140015000028EED1117960F3410111711A7960F368
S21400151041021A71E5E700BF00200E4024120020A9
S214001520A412002070B5044678B1084E012594FA3E
S214001530A4F0B0FA80F056F8203005FA00F224EA5B
S214001540020403B19847002CF1D170BDA41300200B
S214001550064AD2F82804D2F81C1445F2555308401F
S2140015601840C2F82404FFF7DDBF00BF00A000400B
S214001570064AD2F82804D2F81C144AF6AA230840D1
S2140015801840C2F82404FFF7CDBF00BF00A00040FB
S21400159008B5034B1B6803B19847012008BD00BF80
S2140015A0E413002038B5194D2B68044613B198474C
S2140015B000B938BD631E032B05D8DFE803F00B1611
S2140015C01E0201F04BFC6B68204613B1984720467C
S2140015D038BD38BD0E4A136923F00403136130BFCB
S2140015E06B682046002BF1D1F3E7002001F008FBE2
S2140015F06B682046002BE9D1EBE7002001F01AFBD0
S2140016006B682046002BE1D1E3E700BFEC13002017
S21400161000ED00E00C4A0D4B70B50D4C10600D4D02
S214001620616000221A705A70256001F055FEC303EF
S21400163000D470BD01F04AFE6368002BF9D0042088
S214001640BDE87040184700BFE4130020E8130020F0
S214001650EC130020911500002DE9F041184D01F023
S21400166021F92B78804613B901F010FB2B78154F23
S214001670002483B96B78002B14BF02200320FFF7E9
S21400168091FFBB6806460BB198470446E30704D5AE
S2140016902B78002BEED00120F1E7B31EDBB2012B36
S2140016A005D9404601F002F93046BDE8F08101F068
S2140016B0F1FA404601F0FAF83046BDE8F08100BF86
S2140016C0E8130020EC130020831EDAB2012A00D9AA
S2140016D070470549CA5C022802F10102CA54F7D1D4
S2140016E0024B01221A607047E81300200400C6432C
S2140016F00238C3B2012B00D97047064B1A5C2AB9D0
S2140017001B78002BF8D1044A13607047013A1A542C
S214001710F6E700BFE81300200400C643054B1A781E
S2140017202AB95B78002B14BF0220032070470120E3
S214001730704700BFE8130020DFF8D0C0304BF0B58C
S214001740DCF8007038683C461A1D03F1280E52F883
S214001750041C39B118B11E792579AE4202D9084663
S2140017601F461C460833734502F10802EFD1CCF839
S214001770007000283ED0234BDA6922F0FF02DA61BF
S214001780DA6921790A43DA611A6B42F080421A63F9
S214001790DFF87CC01C4BDCF8007038683C461A1D2D
S2140017A003F1280E52F8041C39B118B11E792579B8
S2140017B0AE4202D208461F461C460833734502F165
S2140017C00802EFD1CCF8007070B10E4BDA6922F443
S2140017D07F42DA61DA69217942EA0122DA611A6B1C
S2140017E042F000421A63F0BD064A136B23F0004332
S2140017F01363F0BD034A136B23F080431363C7E7FC
S2140018001014002000300E4038140020F81300207A
S2140018100814002038B5224C226B636A134020D48B
S2140018205B001AD51F4B1868056895B10021082281
S21400183042F0BAFF226A1C491C4B0868D2B2D2009A
S21400184083FB0223A0EB530000F3070040B2012104
S214001850A847134B4FF08042DA62BDE83840FFF7E6
S2140018606BBF134B1868056895B10021082242F03B
S2140018709BFF226A0C490D4B0868D2B2D20083FB4C
S2140018800223A0EB530000F3070040B20021A84754
S214001890034B4FF00042DA62BDE83840FFF74CBF1A
S2140018A000300E40F8130020FC13002067666666C2
S2140018B008140020FFF7AEBF1F4B204810B50021CC
S2140018C0282201241C7042F06FFF002128221C48A9
S2140018D042F06AFF1B4A1C481C491D4B03600B6004
S2140018E01368526DC3F30743FF2B0ED0D2B2FF2A04
S2140018F00AD01848D100A0FB010103EB830002EBDD
S214001900D00203EB910301E013469F22124C1349C9
S214001910134822604FF040420360CA620B6B114AC4
S214001920012023F040430B63C2F880011060FFF7EC
S21400193003FF002010BD00BF60140020101400201C
S21400194038140020B081E00FF8130020081400209F
S21400195000140020CDCCCCCC0C14002000300E405F
S214001960FC13002000E100E0154BF0B541F67132A3
S214001970144D1E6C1A645B682A46002314798C4248
S21400198002F108020ED00133052BF7D14FF040715B
S2140019900B4A536823F040730B43536076B1002321
S2140019A01364F0BD55F83340DFF818E084424FEA80
S2140019B0C307E8D377447B791906E9E7F0BD00BF93
S2140019C000000E40D4AB0400224B98423AD01AD9FD
S2140019D0214B98423AD00CD8204B984225D003F59C
S2140019E0371303F5D86398422AD11D4BD3F8A000CD
S2140019F070471C4B984214D01B4B984220D1184B72
S214001A00D3F8B0007047194B984215D011D9184B2F
S214001A10984211D0174B984212D1114BD3F88C0034
S214001A2070470F4BD3F8AC0070470D4BD3F89C00B3
S214001A307047114B984203D1094BD3F8800070478A
S214001A4000207047064BD3F898007047044BD3F835
S214001A50A8007047405DC60080BA8C010024F400E0
S214001A60B081E00F0048E80180D5430280841E0064
S214001A7000093D00C0CF6A0040420F0008B5FFF7DE
S214001A8097FC0021BDE80840FFF76EBF0C4A0D4BDF
S214001A90D2F89010516A21F0300141F0100110B4D4
S214001AA05162146BC0F3C311033123400F2928BFC2
S214001AB00F21034343EA017313635DF8044B704739
S214001AC000400E4000F8FF0FFFF74EBFC0F30323A1
S214001AD0013B30B4092B13D8DFE803F0251D1212A2
S214001AE021272A120523144D4FF48034134AD2F8C6
S214001AF04431DB07C0F3043004D52844800001607D
S214001B0030BC7047D2F840311C42F6D0D2F8403193
S214001B101C42F7D1F1E70A4DC0F30430EDE7094D5A
S214001B20FAE7094DF8E7094DF6E7094D0124DDE728
S214001B30084D1024DAE700BF8007F21000400E4080
S214001B400006F2108005F210800AF2100000F21073
S214001B500007F2104007F210C0F30313013B062BF8
S214001B6045D8DFE803F0171D23292F3504002A4B3C
S214001B70984247D003F5B01303F58053984236D108
S214001B80264BD3F82831C3F30123043301209840B1
S214001B9001387047214BD3F80001C0F3042070478A
S214001BA01E4BD3F81401C0F3042070471B4BD3F828
S214001BB00001C0F300607047184BD3F80C01C0F367
S214001BC008207047154BD3F80801C0F3082070476B
S214001BD0134B98420DD0134B984208D10F4BD3F8B5
S214001BE020310120C3F301139840013870470020CC
S214001BF070470A4BD3F82031012003F00F039840BA
S214001C0001387047054BD3F828310120C3F3011380
S214001C1098400138704700BF7017160000400E400D
S214001C206006140060162A0008B5FFF795FF01301D
S214001C3008BD00BF00F00F000138072847D8DFE8CE
S214001C4000F0121D3346283E4604264BD3F85C317E
S214001C5003F03003202B40D0302B40D0102B0CBF8D
S214001C600720012070471F4BD3F8943003F007037A
S214001C70023B022B2FD81C4AD05C7047194BD3F876
S214001C80803003F00703013B042B22D8174AD05CB0
S214001C907047144BD3F8883003F00703013B042B3E
S214001CA017D8134AD05C70470E4BD3F8843003F035
S214001CB00703013B042B0CD80E4AD05C7047094B37
S214001CC01B6F13F0010F14BF092007207047002078
S214001CD07047012070470520704704207047082091
S214001CE0704700BF00400E40D0AB0400B8AB040005
S214001CF0C8AB0400C0AB040010B50446FFF79AFF5B
S214001D001E4B9C421DD01E4B9C4214D01D4B9C4229
S214001D100BD0013804282FD8DFE800F0032A192654
S214001D200300BDE81040FFF7A1BB174BD3F88000B7
S214001D3000F00700EDE7144BD3F8880000F007002A
S214001D40E7E7114BD3F8840000F00700E1E7FFF760
S214001D505BFB0D4BD3F80021C2F300620132012376
S214001D609340B0FBF3F010BDBDE81040FFF782BB18
S214001D70BDE81040FFF782BB002010BD03001C002A
S214001D800500200002001A0000400E4000F4781003
S214001D90B0F5901F08B573D01CD9B0F5E01F34D04D
S214001DA055D9B0F5281F35D067D9B0F5301F00F0EB
S214001DB08280B0F5381F1AD15648FFF73BFF072838
S214001DC042D0082800F09B80042810D1BDE80840C7
S214001DD0FFF72CBBB0F5002F13D00AD9B0F5402F73
S214001DE02DD0B0F5602F2FD0B0F5202F1CD00020BE
S214001DF008BDB0F5003F53D0B0F5802F45D0002881
S214001E00F5D1BDE80840FFF7D7BA4348BDE808401B
S214001E10FFF772BF4148FFF76FFF414BD3F8203101
S214001E20C3F30113D84008BDFFF7C6FA3C4BD3F8FE
S214001E301431C3F304230133B0FBF3F008BD394873
S214001E40FFF7F8FE072856D1374B186808BDB0F5DF
S214001E50B01F43D0B0F5D01F3BD0B0F5A01FC6D101
S214001E602E48FFF749FF2E4BD3F82021012302F01E
S214001E700F029340B0FBF3F008BDB0F5001FB6D1DB
S214001E802A48BDE80840FFF737BFFFF795FA244B0E
S214001E90D3F80C31C3F308230133B0FBF3F008BDCD
S214001EA0FFF78AFA1E4BD3F80831C3F30823013331
S214001EB0B0FBF3F008BD1848FFF71EFF184BD3F829
S214001EC02821C2F30122043201239340B0FBF3F031
S214001ED008BD1248BDE80840FFF70EBF0E48FFF7E2
S214001EE00BFF0F4BD3F828210123C2F301129340B6
S214001EF0B0FBF3F008BD09287FF479AF81E7FFF760
S214001F005BFA074BD3F80031C3F3042303FB00004E
S214001F1008BD00BF98002E0003001C0002001A0037
S214001F2000400E4006000C00440000200500200083
S214001F30C0F30313013B10B50C46072B15D8DFE89A
S214001F4003F01E58626C7895AA04944B98420CD104
S214001F50934AD2F84431D90708D5914BD3F83011BB
S214001F6021F003010C43C3F8304110BDD2F84031D4
S214001F705B03F2D5D2F840315B03F7D4EDE7FFF709
S214001F807DFD884A864B01211160D3F8002142F07E
S214001F908072C3F80021D3F8001121F4F85141EA09
S214001FA00424C3F80041FFF72FFA7F4B1C68002C6F
S214001FB0FCD17E4B5968C1F30141FFF7D5FC7C4844
S214001FC0FFF7E4FE7B4B984240F283807A4B012178
S214001FD0984294BF4FF080744FF00074714A704B73
S214001FE01160D3F8000120F080700443C3F800416C
S214001FF010BD6B4BD3F8141121F4F85141EA0424B8
S214002000C3F8144110BD664BD3F8001121F080715F
S21400201041EA0464C3F8004110BD614BD3F80C11CB
S21400202021F4FF3121F4807141EA0421C3F80C1138
S21400203010BDFFF723FD5B4A594B01211160D3F811
S214002040002142F08072C3F80021D3F8081121F471
S214002050FF3121F4807141EA0421C3F80811FFF72B
S214002060D3F9514B1C68002CFCD1A2E7534B984285
S21400207076D0534B984256D0484B98427FF475AF73
S214002080474AD2F84431D9073FF567AFD2F8403116
S2140020905B03FBD461E74B4B984226D003F5B013A5
S2140020A003F58053984216D13D4AD2F84401C4073E
S2140020B001F10103B3FA83F3C3F11B010CD5384ACF
S2140020C0D2F8283123F4407343EA0123C2F82831BA
S2140020D010BD214682E710BDD2F840315806EED535
S2140020E0D2F840315806F7D4E9E72D4AD2F8440131
S2140020F0C00701F10103B3FA83F3C3F11F0109D549
S214002100274AD2F8283123F0300343EA0113C2F8F5
S214002110283110BDD2F840315B06F1D5D2F84031F7
S2140021205B06F7D4ECE71E4AD2F844014B1CB3FA20
S21400213083F3C3F11F01C30709D5194AD2F820312A
S21400214023F0300343EA0113C2F8203110BDD2F861
S21400215040315C07F1D5D2F840315C07F7D4ECE7A4
S2140021600F4AD2F84401C40701F10103B3FA83F31E
S214002170C3F11F0108D50A4AD2F8203123F00F0315
S2140021800B43C2F8203110BDD2F840315807F2D5C3
S214002190D2F840315807F7D4EDE700BF80091200A7
S2140021A000400E404000C843C800C64300300E4002
S2140021B0002508000048E8010090D00360061400DF
S2140021C060162A00701716000139FFF7B1BE00BF6F
S2140021D0F8B50546FFF7F8FB434B074611201E6887
S2140021E01D60FFF727FD05287BD0404B1C68002CA0
S2140021F0FCD13F4B9D425FD03E4B9D4261D03E4B53
S2140022009D422BD01120FFF715FD052848D0B5427A
S2140022103BD83A4B11201F61FFF70CFD052853D021
S2140022203748FFF7B3FD374B984214D9364B012198
S214002230984294BF4FF080704FF00070334B2F4A97
S2140022401960D2F8003123F080731843B542C2F803
S21400225000011FD9F8BD00200146EFE727F0C06750
S21400226047F080671120FFF7E5FC0528CFD1002452
S21400227023462649214A0B60D2F8003123F08073AA
S2140022801C43B542C2F80041C3D92846012100F0DC
S21400229037FDBEE700200121BDE8F84000F030BD64
S2140022A0184B9D42E4D9184C0123A54294BF4FF029
S2140022B080744FF00074DCE727F0C06747F00077C3
S2140022C0D0E727F0C067CDE7FFF79EF8104A1368FF
S2140022D0002BFCD10F4B5968C1F30141FFF744FBBB
S2140022E09EE7FFF7CBFB80E7400000206028C8434E
S2140022F080841E0000093D0040420F0000400E4052
S214002300002508000048E8010090D0034000C843BC
S214002310C800C64300300E401C4B5B6A002970B5EF
S21400232023F0405314BF4FF08055002542B343F0CE
S21400233000531D43FFF77AF8154A06461468002C2A
S214002340FCD1144B59683046C1F30141FFF70CFB32
S214002350114B9E4218D9114B01219E4294BF4FF05B
S21400236080744FF000740E4B084A1960D2F80031A2
S21400237023F080731C43054BC2F800415D6270BDBC
S2140023801D43024B5D6270BD2146ECE700400E40E7
S214002390C800C64300300E400048E8010090D00355
S2140023A04000C843144B5B6A13F0300F10B408D0DB
S2140023B020291DD030294FF4800404D019B10F4ACB
S2140023C003E04FF480044FF440020B49D1F89030FC
S2140023D0094813409342F9D134B1D0F8A0005DF813
S2140023E0044BC0F38020704701205DF8044B704713
S2140023F000244FF40002E8E700400E40FFF3E17FC0
S214002400F8B506280ED8DFE800F0535A045F230D0F
S214002410640041B93C4B08243C4A14661A68002AFA
S214002420FCD1F8BDF8BD39494B6A13F0300F57D1CF
S214002430374BDB6B4B6ADB0761D54C6A324B24F0BB
S214002440300444F001044C6204260325012706E00C
S214002450304B2024102605250029DDD000272B49E7
S2140024600E6619680029FCD0002ADBD02A4C2C44C2
S214002470A4002368002BFCD00228D3D1002FD1D093
S214002480224A536A13F001012FD1FFF78BFF1F4D2D
S214002490D5F89C70022000210122FFF7B1FFC7F398
S2140024A00A00FFF7F3FA2E662368002BFCD0F8BD6F
S2140024B01A4B4FF400744FF480760925CCE7184B7E
S2140024C0802440260725C7E701263546154B0224FB
S2140024D0C2E7154B4FF400444FF480460F25BBE788
S2140024E0094B042603250027B9E720234FF4806113
S2140024F0C2F8A81019465366FFF754FFC7E7024B09
S214002500042603250127AAE70812C84300400E4008
S21400251000300E401012C8438004F2102012C84348
S2140025201812C8430012C8433812C843112838B5D9
S2140025300C4641D000F00F00013807283BD8DFE8F2
S21400254010F02901890087003A0069005F003A0010
S21400255048000120014602460324FFF751FFFFF71B
S2140025608DFA944B94485C67FFF710FC934B9842A7
S21400257040F2C280924B0121984294BF4FF0807087
S2140025804FF000708F4B8B4A1960D2F8003123F061
S21400259080731843C2F80001FEF736FF8A4A1368B4
S2140025A0002BFCD1894B5968C1F30141FFF7DCF9D8
S2140025B0002D00F0C18038BD042900F0E480052914
S2140025C05AD00025023C032CF5D8DFE804F09845E5
S2140025D09BA84C1E072CEED801A353F824F000BF8E
S2140025E045270000B7250000B72500006B27000030
S2140025F0B7250000B72500005D270000592700001A
S214002600072900F0BC80092940F09580694B01221B
S2140026101A6738BD6E4D013C0A2CCCD801A353F87E
S21400262024F000BF8D260000EB260000DD2600000B
S214002630B7250000B7250000A5260000B725000036
S214002640B7250000B7250000A1260000932600004D
S214002650604DE0E7604DDEE70120032401210A46D5
S214002660FFF7CEFEFFF70AFA002D3FF47AAF564A80
S2140026701368002BFCD174E7584A594B15689D42E5
S2140026809FD92846002100F03BFB9BE700232B60E8
S21400269038BD01210A460620FFF7B2FE0523F6E7FD
S2140026A00423F4E7FEF7B0FE444B984264D9444B4B
S2140026B00121984294BF4FF080704FF00070414B5C
S2140026C03C4A1960D2F80031464923F08073034330
S2140026D00120C2F8003103230860D8E70120014634
S2140026E00246FFF78DFE0123D1E701210A460020AE
S2140026F0FFF786FE0223CAE70020014642E70020D5
S2140027000424ABE72F4B2B4A01211960D2F8003185
S214002710022043F08073C2F8003104469EE7294B3E
S214002720244A01241C60D2F8003143F08073C2F8BA
S2140027300031032092E738BD28460121BDE8384025
S21400274000F0DEBA00211B4AD2F85C3123F03003D9
S2140027500B43C2F85C3138BD3021F4E701210A464C
S2140027600420FFF74DFE1021EDE701210A46022066
S214002770FFF746FE2021E6E7002001469FE70D4BC7
S21400278000221A6738BDFEF751FE054600287FF482
S21400279078AF16E78C1E0025032C3FF60CAF01A37E
S2140027A053F824F0FF2600005325000005270000FC
S2140027B01F27000000400E40002508000048E801E2
S2140027C00090D0034000C843C800C64300300E4007
S2140027D088400E4084400E4080400E40400000205E
S2140027E0002D31010816C843F8B504461120FFF73E
S2140027F021FA022000210122FFF702FE1748277C5B
S214002800416A174D2678A288E38821F00101022F3D
S21400281008BF41F0010141622E60617A41EAC2219F
S214002820C162016B257AA27A01F07F610A43E91C36
S21400283042EAC3220F2942EAC51328BF0F2143EA02
S21400284001730363A17B637BE27B247B090141EA7E
S2140028500333134343EA04434363F8BD00400E408A
S214002860A004C84370B504461120FFF7E3F9002022
S21400287001460246FFF7C4FDA17863782278E47823
S214002880054D0648064E2E60090641EAC32313434B
S21400289043EA0423036070BD38400E4438400E46B9
S2140028A07F1B0007EFF3108072B6704700B962B660
S2140028B0704700BFEFF3108072B6704700B962B67B
S2140028C0704700BF024B9B6803EB800001647047B3
S2140028D000ED00E0F0B596469DF81860059A6BB1DD
S2140028E07546002476B1A14214D907682F600134DA
S2140028F09C4205F1040500F10400F3D1064BC3F831
S21400290008E0F0BDA1422F6802D9002FEFD1ECE716
S214002910002FECD12A60EAE700ED00E00E294368BC
S2140029200ED8012210B48A4047F2E004144023F087
S2140029301F0334B143F01003194341605DF8044BA4
S214002940704740F61F741440002CF7D00B434360CA
S214002950F4E700BF70B4102A056A046A036A066AC0
S214002960CE600D604C608B6007D1046A026A036A11
S214002970006AC8610C614A618B6170BC704700BF19
S21400298042EA032340F2011293425BD0B3F5817F03
S21400299014D340F2012293424BD030D9B3F5407F96
S2140029A024D040F2013293423ED12B4BD3F87831FB
S2140029B01A0EC3F3074303600A607047012B2AD040
S2140029C00BD3B3F5807F2FD1234BD3F86C311A0E7F
S2140029D0C3F3074303600A6070471F4BD3F86C319C
S2140029E0C3F30722DBB203600A6070471A4BD3F8C2
S2140029F070311A0EC3F3074303600A607047B3F5DD
S214002A00007F11D1144BD3F87031C3F30722DBB229
S214002A1003600A607047104BD3F87431C3F3072283
S214002A20DBB203600A6070470022134603600A6048
S214002A307047094BD3F87831C3F30722DBB2036043
S214002A400A607047044BD3F874311A0EC3F3074379
S214002A5003600A60704700BFB081E00F1B4BD3F8DD
S214002A60803103282DD8DFE800F0272910021B0E3E
S214002A7079B91B0313F4702F23D11549CA6E22F4BB
S214002A8070421343CB6601207047C3F30743002907
S214002A90EFD0012917D11B0313F4702F11D110B4F6
S214002AA00B4CD4F8E02022F4704213430846C4F8D6
S214002AB0E0305DF8044B7047DBB2D9E7C3F3072379
S214002AC0D6E7002070470120704700BFB081E00FB6
S214002AD000300E40134B144A19685868C1F30121A0
S214002AE0C0F301401368002BFCD1814201D90229B2
S214002AF000D0704710B51120FFF796F80446112055
S214002B00FFF744F9094B04FB00F0984205D8112062
S214002B100521BDE81040FFF709BD0548FFF758FB43
S214002B20F5E700BF00300E40C800C643002D310157
S214002B30C0EA210138B5184B184C18781849194DB9
S214002B40194AC0F1020010238340236145F60E03A4
S214002B50D1F88041C1F880312B6840F255101840FA
S214002B60086604F0010403F001001368002BFCD192
S214002B700E4B1978052905D01120FFF7D7FC2B68D6
S214002B8003F0010010B9064B02221A661CB1044B72
S214002B900022C3F8802138BD7014002000300E409B
S214002BA000400E406C140020C800C643711400207C
S214002BB020B1012800D07047FFF7BCBF0A4A08B50D
S214002BC00A4BD2F890201A601120FFF733F8084B12
S214002BD0084A18701368002BFCD1074B074A5B683D
S214002BE0C3F30143137008BD00400E406C14002070
S214002BF071140020C800C64300300E407014002038
S214002C0010B5044680B9FFF765FF094A136943F01B
S214002C100403136130BF1CB9BDE81040FEF7F4BBD7
S214002C20BDE81040FFF786BF0020FFF7C1FFEAE7C8
S214002C3000ED00E010B5044600BBFFF74BFF114B5C
S214002C40D3F88021D20748BF002245F60E004FF485
S214002C502071C3F88001196648BFC3F880210A4A6C
S214002C60136943F00403136130BF1CB9BDE810407C
S214002C70FEF7CABBBDE81040FFF75CBF0020FFF7B9
S214002C8097FFDAE700400E4000ED00E00020FFF777
S214002C908FBF00BFFFF74EBF164B70B5D3F800319D
S214002CA004460E46FEF788FB134A1368002BFCD139
S214002CB0124D6B68C3F301439C420CD0022C11D01A
S214002CC0C4F10202102393402B612CB11EB10A4AB4
S214002CD01368002BFCD170BD2146FEF7F5FE002ED2
S214002CE0F5D1F8E72146FEF7EFFE10232B61002E04
S214002CF0EDD1F0E700400E40C800C64300300E405D
S214002D0010B5104B82B0D3F8004158B10E4B1B786B
S214002D1013B10E4B98420ED9002002B0BDE8104009
S214002D20FFF7BABF0191FEF747FBC4F3042404FB88
S214002D3000000199EAE7022002B0BDE81040FFF764
S214002D40ABBF00BF00400E4068140020FF2C3101CE
S214002D50034B02781A7000200121FFF7D1BF00BF95
S214002D6068140020044A4178136823F4407343EA49
S214002D7001231360704700BF00300E4015490379E9
S214002D808A69F0B50578447890F802E0C778467905
S214002D90002D14BF0425002522F03F02002C14BF8E
S214002DA0022400241A43BEF1000F14BF082000209E
S214002DB0002F0CBF134642F0010343EA05022243EC
S214002DC002438A610B6823F4403343EA06430B60F0
S214002DD0F0BD00BF00300E401E498B6F1D4ADB075A
S214002DE0FBD4136C13F003031CD01B4A012183424F
S214002DF011601CD0032B02D1431E012B18D9154994
S214002E008A6F144BD207FBD41A6C22F003020243DB
S214002E101A649A6FD207FCD400300F4B18BF0120FB
S214002E20186070470028E7D10B4B18607047704752
S214002E3008494FF40023CB628A6F064BD207FBD4B7
S214002E401A6C22F0030242F001021A645A6A110355
S214002E50FCD5D4E700300E40B40AC64338B5124B52
S214002E604AF6E8529C699D699A60986924F4403451
S214002E7010F0010044F4003445F4403505D11B6CD5
S214002E8003F00303013B012B0AD9074B9C619D61AC
S214002E909C619D619C619D619C619D619C6138BD4A
S214002EA0FFF79AFFF1E700BF00300E402DE9F04F24
S214002EB0A0F5E16489B00023B4F5966F02930393FE
S214002EC004930593069307936CD8B0F5E16F94BF0F
S214002ED000250125002D69D14A4BD3F86831C3F38C
S214002EE00724DBB2079404934FF4167B4FF49669DD
S214002EF0DFF814A10191DAF84C60C6F301760446B7
S214002F00334602A805A990462A46FFF739FDDAF8A7
S214002F10E070C7F301273B4603A806A92A46FFF739
S214002F202FFDDDF810C0079B02980090C9EB040443
S214002F30CCEB03030798DDF814E00699039A03FB2D
S214002F4004F3B3FBFBF3634498422BD39C4529D888
S214002F50C2EB010909FB04F9B9FBFBF991444945A9
S214002F6020D34A451ED80099C1EB0E0202FB04F49A
S214002F70B4FBFBFB8B44DE4514D3594512D8B8F19D
S214002F80000F0BD0DAF85C2022F4FE4222F0020298
S214002F9042EA032343EA4503CAF85C30019B93B92F
S214002FA0012000E0002009B0BDE8F08F154BD3F8F3
S214002FB068311C0EC3F30743079404934FF4966BD3
S214002FC04FF4E16994E730460021FFF747FD0028FB
S214002FD0E8D038460121FFF741FD0028E2D00A4A32
S214002FE0536ED94538BFD94623F4FF7323F0010347
S214002FF0B9F1E70F28BF4FF0E7092B4343EA49032F
S2140030005366D0E7B081E00F00300E403A4B1A6F9F
S214003010D96CC90730B402F0070241D5012A50D94D
S21400302013285BD9143813288CBF4FF47F424FF413
S214003030EE42314C3148E36C314D23F47F43134369
S214003040E364E16C0288E06CC1F3032101312832AD
S21400305002EB620201EB8103B2FBF3F3013B072BA9
S21400306020F0EE6028BF072340F4801242EA036394
S214003070B5F90020E364002A10DB206D28324B00EF
S21400308002EB620203EB5103B2FBF3F3072B20F0D3
S214003090700028BF072340EA0313236530BC70473F
S2140030A0D96CCD0705D4012A1BD9DB6C6FF0FF0263
S2140030B0BFE7DB6CDC0701D5012A08D96FF0FF02F9
S2140030C0B7E7DA6CD1070CD5DB6CDB07F6D527281B
S2140030D08CBF4FF47F424FF4EE42AAE74FF44C52B7
S2140030E0A7E70928FAD90A3809288CBF4FF47F4287
S2140030F04FF4EE429DE700BF00300E406A140020F9
S21400310064140020054A064B06491B68136F23F01B
S2140031100703184310670888FFF778BF00300E4093
S2140031208009C64362140020C3884A2B70B5044643
S21400313005D9B3F5FA7F4BD24FF0805000E000205F
S2140031402C49B4F90C60CA6C2B4D22F0405323F086
S2140031500103002EA8BF43F001030343CB64D1F85C
S214003160E03043F44073C1F8E030CB6E43F0807338
S214003170CB662868002834D1FFF7C4FF1F4B2049D0
S214003180204EA0882589A2891A8030800D80FFF7FE
S2140031903DFFA37B4BB3012B16D001210A46608866
S2140031A0FFF784FE054668B1124A6078D36B43F495
S2140031B08063D363FFF710FEA37A134A003318BF69
S2140031C001231360284670BD0A4B104A9A65E4E74F
S2140031D040F6C310834294BF4FF000504FF040506B
S2140031E0AEE70420FFF78EFFC8E7024B084A9A6551
S2140031F0D3E700BF00300E408009C64364140020A9
S2140032006A140020621400209407C643372110B7C2
S21400321077402057F0B545003AB12E189BBB1C4CA2
S2140032203601344401268E4026602C18240104F111
S2140032308044072904F5204415D84FEA810E6768B4
S2140032400F2606FA0EF627EA060702FA0EF63E43A1
S21400325066603AB92844C3B90D4B00010344012205
S2140032608A401A60F0BD01F18046083EA768B600A5
S2140032704FF00F0E0EFA06FE27EA0E0702FA06F6C3
S2140032803E43A660E5E7034CCAE7024BE5E700BF0E
S2140032900CA000440CA00046054A064B5168526834
S2140032A041F671321A649A6822F001029A607047F9
S2140032B000300E4000000E40034B9A68002122F0BA
S2140032C001029A601964704700000E40014B01220B
S2140032D09A60704700500E40144A154B70B4002098
S2140032E05468144E03F148050DE0B2F5006F18D08F
S2140032F0B2F5803F15D0224202D0214208BF1043CB
S2140033000833AB4210D03268196812F0040F53F835
S214003310042CF0D1B2F5806F03D0E6D8B2F5007F6A
S214003320E9D141F48071E6E770BC704700500E406A
S21400333000AC0400E841E00F014B1860704700BF86
S214003340000084422DE9F041857890F801800279EA
S21400335083790478C17890F805C090F807E0077A7A
S214003360094E280140EA8800204340EA411141EA1C
S214003370022141EA0C3242EAC33242EA0E4343EAF1
S21400338047433360BDE8F081002004400B4A516992
S214003390136901F00F01C3F3811343EA81038370BD
S2140033A0136903F03F0343709169D36901F0F0029B
S2140033B0C3F3031313430370704700BFD0FF0FE03F
S2140033C02DE9F04F0C780CB902234360CA7891F8C7
S2140033D002B00B7A91F801A091F8069091F8078058
S2140033E091F809C091F80AE0CF7A0E794D79097BF9
S2140033F0120442EA0B6B4BEA030343EA8929BAF14B
S214003400000F14BF4023002349EA0828BCF1000F30
S21400341014BF8022002248EA0303BEF1000F43EAED
S214003420020314BF20220022002F43EA020314BF27
S21400343010220022002E43EA020314BF4FF4005667
S2140034400026002D43EA060314BF4FF080520022E8
S214003450002942EA030214BF082300231343002274
S214003460426203600CB101234360BDE8F08F00BFE9
S2140034702DE9F04F547892F800B0957992F802A0B2
S214003480D37892F8049092F8078092F805C092F8E4
S21400349008E0577A967A240644EA8B642C4344EA7A
S2140034A00A4242EA033242EA8923B8F1000F14BF07
S2140034B04FF08042002243EA0C23BEF1000F43EA9D
S2140034C0020314BF4FF000520022002F43EA02030B
S2140034D001F1060114BF10220022002E43EA020367
S2140034E04FEA011114BF0422002213434350BDE8E3
S2140034F0F08F00BF70B5044615461E4601B3202E59
S21400350024D01AD9402E16D0602E21D1042223684A
S214003510104823F06003236005FB02F2490123688C
S21400352001EB5201B1FBF2F2203AD20010401E43EA
S2140035302660606170BD0622E9E756B91022E6E70C
S2140035400548FEF723FC202E0146DAD10822DEE7E6
S21400355070BD70BDF8FF7F004041050038B50546D8
S214003560144619B90548FEF711FC014601396400F6
S214003570B1FBF4F10902696138BD00BF40410500A6
S214003580CB4303F005035B00C360C160704700BF18
S214003590134A1449002330B4904240F6AA6541F21B
S2140035A00504C5600360446083604361C36481644E
S2140035B043678367C3670AD002F58062904209D0EA
S2140035C002F58062904202D0836530BC70470023CB
S2140035D00365F9E7036530BC8365C365704700BFC4
S2140035E000000140F9FF0100F8B50C460546FFF75C
S2140035F0CFFFA37C1BB12B6843F080432B60E37C9A
S2140036001BB1237D43F08003AB65278A607BE68988
S2140036106168A268237B3843304368602846FFF71A
S21400362069FFE27DA37D617D12051B0702F4E002BF
S21400363003F0E04313432B6619B12B6843F4803341
S2140036402B606A6F207E217822F030026A676B6FEB
S21400365003436B67E960F8BD70B50C460546FFF797
S21400366097FF238AA67B2A68207DA17C43F001036E
S214003670002E9BB243EA020314BF4FF4806200227E
S21400368013432B602B68002814BF4FF00052002213
S21400369013432B6019B1E37C43F08003AB65237BB7
S2140036A06168A26843F480536B602846FFF756FFB4
S2140036B0637B0BB11023EB60E27DA37D617D120579
S2140036C01B0702F4E00203F0E04313432B6619B134
S2140036D02B6843F480332B602378EB6070BD00BF0B
S2140036E003691B06FCD5C069C0B2704703695A0659
S2140036F0FCD5416303699B06FCD5C069C0B2704720
S21400370003695B06FCD54163704700BF03695B062F
S214003710FCD5C163704700BF2DE9F04F5E4C87B003
S21400372024680292002C00F0B280DFF870C19CF88A
S21400373011201AB10A2007B0BDE8F08FDFF860A1AB
S214003740BAF806501E46DCF80830294489B2DB0871
S2140037500191009301FB03F5002E49D0DFF844B138
S214003760254490460127BAF808409CF81020BAF87D
S2140037700430241AB44228BF3446012AA6EB0406B5
S21400378023D8029900290CBF4FF0FF094FF000091B
S214003790012A04BF6FEA09095FFA89F90344072C76
S2140037A09BB229D81C44B9F1000F4BD1A3420CD2CE
S2140037B0D90803F007006A5C013307FA00F09BB2F1
S2140037C022EA00029C426A54F2D8019B43445911F3
S2140037D003F01F035BF8212007FA03F31A43009B4C
S2140037E04BF821201D4408F101080020002EBAD114
S2140037F0002007B0BDE8F08FD9086A1813F0070359
S21400380003922ED007FA03F2685C083B013AD2B264
S2140038101C44039B104029EA0202024301335FEA7C
S214003820D40E03936A541ED1039907FA04F30A7858
S214003830013BDBB203EA090922EA030343EA090370
S2140038400B70C2E7A342C0D2D90803F00702685C37
S214003850013307FA02F29BB202439C426A54F3D841
S214003860B3E74FEAD40E039BCDF814C01846724651
S21400387073444946CDF810E0039340F095FFDDF819
S21400388010E0DDF814C0B4EBCE049ED0CCE70120E7
S21400389007B0BDE8F08F00BF741400207814002035
S2140038A0A4140020EC650020044B1B781BB1044BCD
S2140038B00360002070470120704700BFB01400204E
S2140038C0A414002070B40E4C247874B10D4C2588D6
S2140038D08618AE4202DD042070BC70476588CE189C
S2140038E0AE42F8DC22B90520F6E7012070BC70472E
S2140038F0002BF8D0A080E180228163810020EBE7D6
S214003900B0140020A4140020064A30B41478039D96
S21400391024B11A462B4630BCFFF7FEBE012030BC51
S214003920704700BFB0140020F8B50A4C0A4DA669CF
S2140039306168E2682B4607462046B0472B683BB1D5
S2140039403B60FF211022054840F02EFF0020F8BD06
S2140039500B20F8BD7814002074140020EC650020BD
S214003960F8B5194D2B780BB10020F8BD00F0E2FB3E
S21400397000B1F8BD154E314600F0F6FB00B1F8BDBB
S214003980134F3846FFF7D0FF0446C8B93B68C3B1AB
S214003990B6F804E0B7890F4E4FF0010C07FB0EF3A4
S2140039A001460246A6F800E07780B080F080A6F8D0
S2140039B008E0778185F800C0FFF7AEFE2046F8BD28
S2140039C0F8BD0B20DBE700BFB01400207814002001
S2140039D074140020A41400202DE9F04F2A4FDFF8BD
S2140039E0AC80BA68FB68D8F80040DFF8A49085B0D1
S2140039F000204FEAD20A0122BB4601460546039242
S214003A009D420AD214F0010211D001304518EA0690
S214003A1012D09D424FEA5404F4D320BB1B48002129
S214003A20102240F0C1FE002005B0BDE8F08F50B96E
S214003A3001314518EA06ECD1039E3246013258F8A9
S214003A4026400392DCE77B680190D9F800000091DD
S214003A503E6A0AFB01010C48B0470028E4D1691C05
S214003A60DBF80C30D2E70A4A7B68126800910190B6
S214003A700AFB01213C6A04480022A0470028CDD05A
S214003A8005B0BDE8F08F00BF78140020EC6500207C
S214003A9074140020014642698369098A80890132CC
S214003AA00133121A5B1A92B29BB2FFF70BBF00BF2C
S214003AB00B688A68934201DB04207047F0B44D68B7
S214003AC0C9688D4202DB0420F0BC7047002B0FDB78
S214003AD0002D0DDB06683788BA4209DA7688B142CF
S214003AE006DAC360056142618161F0BCFFF7D2BFB0
S214003AF00320F0BC704700BF30B587B008B3002283
S214003B006FF07F4342608360044601A8FFF7CCFE57
S214003B10054698B9019B23601A885B880290013A93
S214003B20013B204602A9039504920593FFF7C0FFC8
S214003B30054618B92046054900F078F9284607B02A
S214003B4030BD0525284607B030BD00BF74AF040061
S214003B50F0B130B590E82800044600201A885B884B
S214003B60014683B0FFF7AEFE014670B92268EBB29D
S214003B7000935489138903FB04F30193C5F30742AA
S214003B80C5F30723FFF7C0FE0146084603B030BD65
S214003B9005210846704700BF70B5044682B0B8B12C
S214003BA00C300E46154600F035F810B9012002B06C
S214003BB070BDA3680124DAB20092B0B2C3F3074224
S214003BC0A9B2C3F307230194FFF79EFE02B070BDAF
S214003BD0052002B070BD00BFC8B170B50C3082B011
S214003BE01C460E46154600F015F810B9012002B026
S214003BF070BDE2B201238DE80C00B0B2A9B2C4F3E6
S214003C000742C4F30723FFF77FFE02B070BD05200E
S214003C10704700BF78B103688B420BDC836899421B
S214003C2008DC4368934205DCC0688242CCBF0020B3
S214003C3001207047002070472DE9F04F90F828408B
S214003C4085B0022C9DF8387000F08C80203989B23F
S214003C500091048C8C4203DC022005B0BDE8F08F96
S214003C6090F82510C4690394002900F0958002930B
S214003C70002690F8243001969046814699F8222036
S214003C80012A7CD0022A75D1039A009932F8115085
S214003C90002B7ED0029A019902EB010BDA46002433
S214003CA007E0002F3BD10134A4B29C424FEA5505F1
S214003CB013D2EA07F5D5484604EB08015246FFF74B
S214003CC06BFF0128C9D800B9013699F824300134B1
S214003CD0A4B29C424FEA5505EBD3214699F827003B
S214003CE01A188A4209DD029A019D55193FBB013414
S214003CF0A4B21A1894422146F8DB019899F82320BA
S214003D00009C99F82510013080B21444A2B281427A
S214003D1001900092B2D8B6FA86F040099DE7484670
S214003D2008EB04015A46D9F80430FFF755FF01287E
S214003D3093D899F824300028B5D10136B3E741442A
S214003D4048462A46D9F80430FFF746FF012884D8AB
S214003D5099F8243010B199F82700C8E799F8270099
S214003D600136C4E73A2911D020290CD0303989B25F
S214003D7000916EE7039A009932F8215088E7039A7B
S214003D800099555C84E70B21009162E70A210091B7
S214003D905FE719461C46A1E701205EE72DE9F04FD4
S214003DA083B0DDF830809DF834B038B131B190F88A
S214003DB028403CB9022003B0BDE8F08F052003B0D0
S214003DC0BDE8F08F82B3054699460C468F181E460E
S214003DD04FF0000A13E0CDF800B0284632464346BE
S214003DE0FFF72AFF0128E6D808B90AF1010A95F874
S214003DF0242095F8273013441E44BC4210D014F8F3
S214003E00011B0A29A1F1200302D05E2BD2D8E2E7DB
S214003E1095F8253095F82620984490444E46ECE7D1
S214003E20BAFA8AF04009C6E70120C4E738B108B5F7
S214003E301C30102229B140F0B9FB002008BD052037
S214003E40704740F0B1FC052008BD00BF2DE9F04FDB
S214003E50664B674A186859681C7AD2F8B02089B051
S214003E6005AB03C352071C7040F1B8804FF0000842
S214003E7060485F4CFDF7DEFE032107465D48D4F838
S214003E809050FEF753FB5C48FDF7CEFED4F8F030BA
S214003E900390DB0705F0400540F19980002301936D
S214003EA0FEF708FD554A136813F00104814673D0E7
S214003EB013685349029340F2FF7600234FF0004008
S214003EC0546A1360536216620126C1F8800100230B
S214003ED0082205A88DF816308DF817308DF81820B2
S214003EE0FFF730FA4748454A4FF48053036096463A
S214003EF003685B00036063B1916893689942FCD0E5
S214003F00DEF808100368013BFDD8DEF80830994259
S214003F10EED00368394ADFF8ECB05B080360D0F8EF
S214003F2000E092464FF0080C5FEA5E0E19D0036878
S214003F304EEA03030360916893689942FCD0DAF86E
S214003F4008100368013BFDD8DAF80830994205D01E
S214003F50DBF8003023EA0E03CBF80030BCF1010C8E
S214003F60E2D14846FEF7AAFCCEB103992248FEF7F6
S214003F702BF9224B029A1A605C62019BABB9032FA5
S214003F8019D1F5B1B8F1000F03D01F480021FDF795
S214003F909DFD09B0BDE8F08F0294264697E73046AF
S214003FA0FFF7CAF9019B002BE9D013480021FDF763
S214003FB08DFD032FE5D039460E48FEF7B7FA002DE3
S214003FC0E0D1012029462A46FEF71AFADAE70A481F
S214003FD00121FDF77BFD0123019361E70A480121DA
S214003FE0FDF774FD4FF0010842E700BFA4B20400DD
S214003FF000400E400500200080091200002004400A
S21400400000E100E0480000200025080003460849BB
S214004010002B0CD0013B88221202003253430A6860
S214004020D80AD20A5043800901D00138FDD870471B
S2140040304800002070B5224D224E0FCD88B002AC4D
S2140040400FC495E8030084E803001F480121FDF72C
S2140040503DFD1E480121FDF739FD01241C4B04934C
S214004060304602A98DF81640FFF7F6FA23460220DE
S21400407006210422FFF7CEF822460220072100235D
S214004080FFF7C8F82346022008210422FFF7C2F8EB
S214004090042123460A460020FFF7BCF80D4BB36701
S2140040A00B2249F23D6372670193019B002B05DDED
S2140040B0019B013B0193019B002BF9DC08B070BD0E
S2140040C0B0B20400000401400035080000420400BD
S2140040D000127A000B0B000B38B5134B10221A6037
S2140040E014241248FF21FFF701FB013CF9D1104BC5
S2140040F010221A601E240D48FF21FFF7F7FA013C34
S214004100F9D105240948FF21FFF7F0FA013CF9D15F
S214004110054B064810251D60B921FFF7E7FA044B4A
S21400412020461D6038BD00BF0CA0004400040140BE
S2140041300CA000460A4A13786BB910B5094C2368E0
S214004140012111701BB908E054F8043F2BB19847C1
S2140041500028F9D010BD00207047002010BD00BF19
S214004160E41400204C000020094B1B780BB90948CA
S2140041707047002801DD0848704710B5074C034615
S2140041802C22084602FB034140F010FA002010BD26
S214004190E41400200500118002001180B8140020ED
S2140041A00B4B1B780BB90B48704710B50A4C2368AD
S2140041B0002B01DD094810BD014609482C2202FBF0
S2140041C003000133236040F0F1F9002010BD00BF6A
S2140041D0E414002005001180B414002001001180B2
S2140041E0B8140020802901D009487047094908689A
S2140041F010B4094C00EB0212A24205D9002207486F
S2140042001A605DF8044B704718600A600020F8E7F3
S2140042100200118054000020E81C002001001180DC
S214004220004870470400118008B500F033F900F02C
S214004230E9F8002008BD00BF70B51E4653B10C4615
S21400424000252046102201350021144440F0ACFA27
S214004250B542F6D1002070BD2DE9F04782B00C467D
S2140042600A9D0B9F0E210320013500F043F9ADB2E5
S214004270062000F015F902AE2B0243F0010326F8E3
S214004280023D0221304600F0E5F807B3013507F19C
S214004290FF384FF0000A4FF6FF79102120460C44F5
S2140042A000F0D8F8D04505EB0A031CBF1B0243F00C
S2140042B0FF034FF002010AF1010A30460CBFADF8C9
S2140042C00690ADF8063000F0C5F8BA45E5D10220F4
S2140042D000F0E6F80E21032000F01AF9002002B0E4
S2140042E0BDE8F08708B50D21032000F01FF9002077
S2140042F008BD00BF08B5032021B90F2100F008F95A
S214004300002008BD0F2100F0F5F8002008BD00BF12
S214004310F0B58DB000F0BEF800F074F800F0D2F8FA
S214004320002213460821022000F0D6F80022134689
S2140043300621022000F0D0F8002213460E210320AA
S21400434000F0CAF8002213460F21032000F0C4F83C
S214004350002213460D21032000F0BEF8214800215C
S214004360802200F0A3F808B10DB0F0BD8023DFF87E
S21400437090C01D4C1D491E4A8DF815004FF0010EC9
S2140043801C4F1D4E1D4D099401A8CDF804C08DF894
S21400439014E00293049303930697079608950A91F0
S2140043A00B92FFF7FDFE04460028DDD10F21032007
S2140043B000F0A0F80E21032000F09CF8062000F084
S2140043C06FF80CA8042320F82E3D022100F042F8D6
S2140043D0022000F065F80E21032000F099F8204630
S2140043E00DB0F0BDE5420000594200003942000021
S2140043F029420000F5420000E5410000214200008D
S214004400C8B2040070B50F4D0F4E0FCD86B06C4687
S2140044100FC495E8030084E803000C480121FDF76B
S21400442055FB30460A4B02936946FFF715F90A23F7
S2140044307367B36F23F01F2343F00B230020B3678B
S21400444006B070BDE0B20400000401400042040063
S214004450E067350038B505460C465CB1012C0C48C3
S21400446001D0EA070CD5013C15F8011BFFF748F907
S214004470002CF3D1064A13699B06FCD5002038BDF4
S214004480034835F8021BFFF741F9023CE5E700BF99
S2140044900004014008B5FFF7D9FC002008BD00BFA6
S2140044A008B5FFF7B3FD002008BD00BF08B5FCF750
S2140044B0A5FA034B002814BF1846002008BD00BF0D
S2140044C00200138008B503480121FDF7FFFA00201B
S2140044D008BD00BF0035080010B514460AB10448F0
S2140044E010BDC0B20422FEF795FE204610BD00BFE8
S2140044F001001380C0B200EB4000044B00010344EF
S21400450001228A401A600020704700BF0CA00046B7
S214004510C0B200EB4000044B0001034401228A4075
S2140045201A600020704700BF0CA00044C0B200EB29
S2140045304000000100F1804000F5204001238B4040
S21400454083610020704700BF00207047FEE700BF71
S2140045504FF400534B600020704700BF01207047A7
S2140045600020704770B5164682B10D46002404E060
S2140045700134A64205F8010B06D000F0B7F8431C3C
S214004580F6D11CB1204670BD304670BD4FF0FF30EE
S21400459070BD00BF044A05491368002B08BF0B46D0
S2140045A01844106018467047E81C0020D06C0020A5
S2140045B070B5161E07DD0C468D1914F8010B00F0B9
S2140045C0C1F8AC42F9D1304670BD00BF104838B5CE
S2140045D003691B0600D438BD0E4C2568FFF780F82B
S2140045E00D4A0E4B50552268013222601A6801327D
S2140045F01A602268082A04BF002222601B68074A45
S214004600082BE8DD06490023236013600B6038BDE5
S21400461000000140FC1C0020F01C0020041D0020AF
S214004620001D002070B52948294D2A4E88B001216A
S214004630FDF74CFA28480121FDF748FA002001460C
S21400464004220123FEF7E6FD0020012103460A4668
S214004650FEF7E0FD0FCD01AC0FC495E8070001237F
S21400466084E80700042200200521FEF7D3FD1B483E
S2140046700121FDF72BFA08A9002401F81C4D30464D
S214004680FEF7B2FF03237367B36F154A23F4F8539C
S21400469004204FF4805123F01F03B367B064C2F8C0
S2140046A08011F36C0343F364304611600521FEF776
S2140046B067FF0C4B1B68214698680222234640F091
S2140046C0EBF8094B01221A7008B070BD4041050096
S2140046D0F8B2040000000140003508000032040073
S2140046E000E100E098090020F81C0020114B1B7820
S2140046F010B5CBB1FEF7DEF80F4A1368002B16DDB7
S2140047000E4B0F4C1968645C196801311960196802
S214004710082904BF002119601368013BE4B2136046
S214004720FEF7CCF8204610BDFFF77CFFE2E74FF01F
S214004730FF34F5E7F81C0020041D0020001D0020B3
S214004740F01C002038B5124B1B78044673B1114D8F
S21400475011482B780BB10A2C11D02146FEF7D0FF5A
S2140047602B780BB10D2C04D0204638BDFFF75AFF2E
S214004770EDE709480A21FEF7C3FF204638BD0D21A4
S214004780FEF7BEFF04482146FEF7BAFFECE700BF7F
S214004790F81C0020EC1C002000000140F0B5214B66
S2140047A089B0186859689A68DB6804AC0FC44FF083
S2140047B0010E0024C8212022A0234FF4E1670F2613
S2140047C00A2504A88DF811E0ADF818108DF81A2007
S2140047D0ADF81C308DF81040ADF81270ADF81460CE
S2140047E0ADF81650FEF7A0FC08A800F8204DFEF71E
S2140047F0AFFA022301A88DF805308DF80440FEF7C5
S214004800B1FA02A88DF808408DF809408DF80A40E4
S2140048108DF80B408DF80C408DF80D40FEF7AEFA83
S21400482009B0F0BD14B3040070B5394E354686B0F5
S21400483055F8100FEB686968AA682D8A01AC0FC49A
S21400484001A82580FDF7D0FF3248FCF7F5FD0121D1
S2140048500A460220FDF7D4FD01210A460020FDF796
S2140048605BFD00210A460320FDF7CAFD01212A4808
S214004870FDF72CF9706A0090202368468DF800300A
S214004880FDF7F0FF01210A460020FDF7B9FD4FF4C1
S2140048900040FCF7F9FD21480221FDF747FE2048BD
S2140048A00221FDF743FE1F480221FDF73FFE1E488A
S2140048B00121FDF70BF91D480121FDF707F91C48FA
S2140048C00121FDF703F91B480121FDF7FFF81A48FF
S2140048D00121FDF7FBF8194B1A6822F01F021A6037
S2140048E01A6822F478721A60D3F8702122F0805287
S2140048F0C3F87021D3F8702122F00102C3F87021AA
S214004900D3F8702122F00202C3F8702106B070BD01
S21400491014B3040000F049020025080002001A0043
S21400492003001C0005002000006508000055080074
S21400493000450800800912000035080000400E40BF
S21400494030B5104B53F8280F85B059681D7A01AA68
S21400495003C200230521012401A815708DF8044028
S2140049608DF805308DF806308DF807308DF8093053
S2140049708DF80A308DF80B308DF80810FEF7E2FC43
S21400498005B030BD14B30400104A1149F8B51368D9
S214004990DFF854E00F4E104C104F114D43F4807367
S2140049A04FF4167C4FF4F0701360CEF800C03760FA
S2140049B025600860FFF7F2FEFFF736FFFFF7C0FF3F
S2140049C0084B5A6B5A639A6B9A63F8BD00000E4008
S2140049D094420E4090420E40FC420E404A5D050056
S2140049E028E2160000600E408C420E4010B5094BBF
S2140049F004460FCB84B00DF1100E0EE90F00A3098C
S214004A000EEB830304F03F0453F8100C00FB04F095
S214004A1004B010BD48B3040010B4832945D8DFE8BD
S214004A2001F05961496849495454547754545454D0
S214004A305444444444444444444444444444444421
S214004A404444444444444444444444444444444421
S214004A504444444444444444444444444444444411
S214004A604444444444444444444444444444444401
S214004A7044444444444444444444444444444444F1
S214004A8044444444444444444444444444444444E1
S214004A9044444444444444444444444444444444D1
S214004AA0444449494942042B36D04FF4C0705DF85F
S214004AB0044B7047022BF8D101705178137843EA03
S214004AC00123A0F801300020F1E740F283105DF8E2
S214004AD0044B7047012BE8D1002303701278427014
S214004AE01846E4E7012BE0D10370137843700020EA
S214004AF0DDE7042BD9D1032303709378547811781B
S214004B001A0442EA04230B43A0F801300020CEE743
S214004B10012BCAD10923E7E7832303705178137862
S214004B2043EA0123A0F80130D178937843EA0123C1
S214004B30A0F803300020BAE710B50478852C51D8C9
S214004B40DFE804F0434982525252524952525252BE
S214004B505252525252525050505050505050505044
S214004B605050505050505050505050505050505040
S214004B705050505050505050505050505050505030
S214004B805050505050505050505050505050505020
S214004B905050505050505050505050505050505010
S214004BA05050505050505050505050505050505000
S214004BB050505050505050505050505050505050F0
S214004BC05050505055556565714621B1012B4CD853
S214004BD04FF4C07010BD002BFAD043781370012339
S214004BE0029A1360002010BD40F2831010BD002909
S214004BF041D0032BECD9B0F8013013701B0A537068
S214004C00B1F8013093701B0AD3700423E8E7012B38
S214004C10DED9B0F8013013701B0A5370029B0221D4
S214004C200020196010BD032BD2D9B0F801301370E4
S214004C301B0A5370B0F8033093701B0AD370029BA4
S214004C4004210020196010BDF1B1032BC0D9B0F9C2
S214004C500130137043F307235370B1F9013093709A
S214004C6043F30723D3700423BAE7437813704B78D3
S214004C7053700223B4E7012BAAD9B0F801301370A1
S214004C801B0A53700223ABE7012BA1D9B0F9013000
S214004C90137043F3072353700223A1E738B50E4C75
S214004CA00E4B206019600AB9104638BD02EB42046C
S214004CB0A4000346204615469847094A106038B1B6
S214004CC0224600213FF070FD064B00201D6038BDD7
S214004CD04FF4C17038BD00BF101D0020141D002009
S214004CE0081D00200C1D0020F0B51A4C27686FB375
S214004CF0194CD4F800E00025744603E0BD4204F1E8
S214004D000C040AD02688864205F10105F6D166888D
S214004D108E42F3D140F28110F0BDDEF800405CB167
S214004D200EF10C0500240134BC42AE460ED0DEF86F
S214004D3000600C35002EF6D1CEF80420CEF80830F0
S214004D40AEF80000AEF802100020F0BD4FF4C170BF
S214004D50F0BD00BF0C1D0020081D002070B10368C8
S214004D60214A23F47F4323F00703934207D002F13E
S214004D708072934202D100231B88FFDE704770B515
S214004D801A4B85881968C6888CB0B9B1184B1C6850
S214004D90002304E001338B4204F10C040ED0228879
S214004DA0AA42F7D16288B242F4D1054605F118024C
S214004DB007A8A97DEB7DFFF72FFE08B10CB070BDEC
S214004DC0AE89A888E9882A896B89009607AE01967D
S214004DD0D5F80E6002966E8A0396AD8AEDB20495FB
S214004DE06468A047EAE700BFA0001F000C1D002073
S214004DF0081D00202DE9F04F87B002AC8246894698
S214004E0090461F461098009403AA11999DF84C608E
S214004E100A23FFF791FE10B107B0BDE8F08F194BDB
S214004E209DF80850184AD3F800B0109B14681B78F9
S214004E30F02D08D94FF4C5732BF8043FBBF80000DB
S214004E4007B0BDE8F08F129AE260A37403A92A4661
S214004E50A4F804A0A4F80690A4F808806781268227
S214004E60E57404F114003FF0A1FB2802214600F58A
S214004E70F81000F5815041F8040B01F00DFE0BF11F
S214004E80040BDBE7E01D0020DC1D00202DE9F041CF
S214004E9086B002AD14460F46804619461046009569
S214004EA003AA0A23FFF748FE10B106B0BDE8F0815A
S214004EB09DF80860134A144B21781D681468F62E76
S214004EC008D92B464FF4C57223F8042F188806B06D
S214004ED0BDE8F0810C9BA36032462173667303A97C
S214004EE0A4F80480E78004F10E003FF05FFB07485B
S214004EF021463602304441F8040B01F0CDFD2B1D4F
S214004F001888E4E7DC1D0020E01D0020200A1F01B1
S214004F10084B1B6870B51C46074E084D9880D98014
S214004F2036681A7244F8045B2846214601F0B4FD40
S214004F30B08870BDDC1D0020E01D002020051F028B
S214004F40044B1B6823B11A88824201D09B68F9E79C
S214004F5018467047181D0020084B9A68D00741BFB6
S214004F600748016801310160910741BF0548416A61
S214004F7021F0020141621A61704700BF0040044000
S214004F80C46C002000200440024B4FF080525A6050
S214004F90704700BF00ED00E07047704770B50A4EDE
S214004FA07468B26823189A4205460BD92A462046EA
S214004FB000213FF0F9FBE31C1D4425F00305756056
S214004FC0204670BD002070BD181D002007B502AB3E
S214004FD0042243F8041D194645F0A2FA03B05DF812
S214004FE004FB7047704770477047704770477047BC
S214004FF0704770477047704770470346800B01281C
S2140050000CD002D3022804D17047181C18BF012008
S2140050107047B3F57F4F2CBF042003207047094B21
S21400502010B540F201141C609860012058601144CD
S2140050308A4204D0034812F8014B8461F8E7D86925
S214005040C04310BD00C0014002464FF0FF30FFF7DE
S214005050E6BF38B50446251D45F06AFA2846002105
S214005060FFF7B4FF04F108000121FFF7AFFF284661
S2140050700821FFF7E9FF01462046FFF7A7FF0020BB
S21400508038BD08B5FFF75CFF00B1807808BD10B5E5
S2140050900C46FFF755FF18B10C302060002010BDFD
S2140050A040F2025010BD08B5FFF74AFF003018BFA7
S2140050B0012008BD38B50D4CFEF7EEF82068FFF766
S2140050C0C8FF6068FFF7C5FF094B00221A70094B3E
S2140050D018681C4620B185683EF09CFF2846F9E714
S2140050E02060BDE83840FEF7E7B800BF9C660020A9
S2140050F04E050020181D002010B5FEF7CDF81A4A00
S2140051001A4C936C9BB29B02A3F580532360936C5E
S2140051109BB29B02A3F500636360206808210430FD
S214005120FFF792FF23681B68984202D02068FFF7BB
S21400513090FF606808210430FFF786FF63681B68ED
S214005140984203D0094B5868FFF783FF22686368CC
S21400515052685B689A42064B34BF012200221A70DE
S214005160BDE81040FEF7A8B8B081E00F9C660020AE
S2140051704E050020C0F30A030833B3F5006F06D2CD
S21400518083884FF6FF701B1A58425841704701201B
S21400519070472DE9F74F304E304A337859B283F0D6
S2140051A001035BB252F8219052F82370384645F05E
S2140051B0BFF909F10C0A07F10C08554685EA0A03FF
S2140051C023F4FF6323F007034BBB2846FFF7D2FF09
S2140051D0834620BBA979281D0431FFF735FF2B68CD
S2140051E0984201D12C4607E0AC79033424F003043E
S2140051F008342C442546E1E7AB7903339B10013392
S2140052005B45F7DB08F10403404654F8041B0193A2
S214005210FFF7DCFE019B0BF1010B9846ECE7D9F893
S21400522004103C1D20460131FFF7D0FE07F10800B0
S2140052300121FFF7CBFE20460821FFF705FF0146B8
S2140052403846FFF7C3FE3378404683F001033370D9
S21400525003B0BDE8F08F00BF4E0500209C6600201E
S2140052602DE9F74F1E46584B174693F90020574B2B
S21400527053F82230814603F10C0A8846FEF70CF8F4
S21400528054462046FFF776FF0546002840D1A17910
S21400529004F1040B58460431FFF7D6FE2368984203
S2140052A024D1A3884B4521D1A3799F420BD1304608
S2140052B004F108013A463FF047F9054618B9FDF7EC
S2140052C0FBFF28467DE094E8030002AB03E90300F9
S2140052D0BDF80430DB43ADF804304FF6FF73ADF88D
S2140052E0063058460199FFF771FE0546A379033349
S2140052F023F0030308331C4484EA0A0323F4FF6301
S21400530023F0070313B9002DBBD053E0002D51D175
S214005310002F4ED007F1080563198AEA030323F429
S214005320FF6323F0070373B1FFF733FFC0F30A03ED
S21400533004461BB11D44B5F5006F04D9FDF7BCFF4C
S21400534040F201503DE047EA0828ADF80490ADF879
S214005350068004F1040840460199FD1CFFF736FE5E
S21400536004F1080925F003054D44C0B9A94506F126
S214005370040614D016F8011C16F8043C43EA016330
S21400538016F8031C43EA012316F8021C484609F1E6
S214005390040A43EA0141FFF719FED146E5E7391D45
S2140053A04046FFF751FE01462046FFF70FFE054632
S2140053B000E03D46FDF780FF002D0CBF00204FF4B7
S2140053C0C67003B0BDE8F08F4E0500209C66002036
S2140053D030B5441EA4B24FF6FD75AC4202D8BDE807
S2140053E030403DE74FF4C07030BD38B50546FFF796
S2140053F0A7FD044648B128460221A27804F10C0312
S214005400FFF7E6FF0020A08038BD40F2025038BD0E
S21400541070B506460D46FFF793FD044688B125B1E4
S2140054200C302946A2783FF0C1F8A388E288013301
S2140054309BB29A42A38007D83046BDE87040FFF77B
S214005440D4BF40F2025070BD002070BD2DE9F84375
S2140054501E462C4B154693F900202B4B53F8224042
S2140054600C3480460F46A1464846FFF783FE18B127
S21400547040F20250BDE8F88399F8061009F10400DE
S2140054800431FFF7E1FDD9F800308342B9F8063061
S2140054904FF0FF02B3FBF2F2C2EB0222A3EB0203D1
S2140054A09BB203F1030323F0030303F108034B4409
S2140054B083EA040222F4FF6218BF08F1010822F012
S2140054C0070218BF5FFA88F8002AD1D108F1FF3228
S2140054D0D2B2B8F1000F02D099469046C4E7B9F8A8
S2140054E004303B801DB1B9F806301B0A2B70B9F8A2
S2140054F00630089A337009F1080313600020BDE8EF
S214005500F88300BF4E0500209C660020431EF7B5BA
S2140055109BB24FF6FD72934206460F4636D81D4B99
S21400552093F900201C4B53F82250FDF7B5FE0C35BE
S2140055302C462046FFF71EFE18B1FDF7BDFE0020E4
S21400554026E0A38873401F4211D194E8030002AB03
S21400555003E90300BDF80430DB43ADF804304FF632
S214005560FF73ADF80630201D0199FFF72FFDA379D4
S214005570033323F0030308331C4484EA050323F4AF
S214005580FF6323F00703002BD3D0D6E740F21220A8
S21400559003B0F0BD4E0500209C66002070B5154B8C
S2140055A093F90020144B53F822500C3506462C462F
S2140055B02046FFF7DFFD08B1002070BDA179201D51
S2140055C00431FFF741FD2368984202D1A388B34215
S2140055D00ED0A379033323F0030308331C4484EA74
S2140055E0050323F4FF6323F00703002BE0D0E3E773
S2140055F0204670BD4E0500209C66002008B5FFF7CB
S214005600CDFF00B1807908BD70B50C4616461D4624
S214005610FFF7C4FF38B904B120700023337040F29E
S21400562002502B6070BD14B1C188090A2170C3886E
S214005630337008302860002070BD13B5144601ABE7
S2140056400DF10302FFF7E0FF60B99DF8031049B1C2
S214005650019A01291378238006D9527843EA022357
S214005660238001E040F2025002B010BD1F4B07B588
S214005670986800F16043B3F5004F07D300233F213D
S214005680009301931A4A0B46FDF724F900201949A6
S214005690FDF718F901201849FDF714F904201749F9
S2140056A0FDF710F905201649FDF70CF906201549F7
S2140056B0FDF708F907201449FDF704F908201349F7
S2140056C0FDF700F91A201249FDF7FCF81C201149D5
S2140056D0FDF7F8F81D201049FDF7F4F80F492020D3
S2140056E003B05DF804EBFDF7EDB800BF00ED00E099
S2140056F0002F0020B518000051AD020059A8020086
S21400570041AD020045AD020091A702004DAD02007A
S214005710751300005DA7020049AD0200A5910200C6
S21400572040B241F00101FDF7CDB8074A074B1168BA
S2140057305B6812689142F8D1DA0B42EA4142C3F341
S2140057400E03026083807047C46C00200040044053
S214005750014B01225A61704700400440014B5868D3
S214005760704700BF00400440034B18625A6942F07D
S21400577002025A61704700BF0040044008B540B1BD
S21400578007491E2041F00101FDF79CF8054B012258
S2140057905A61054B4FF08042C3F880211A6008BD5D
S2140057A0594F00000040044000E100E01E4B8022FC
S2140057B0202183F80C2383F80D2383F8142383F821
S2140057C0152383F8262383F8272383F8162383F8E4
S2140057D00E2383F8172383F80F2383F8112383F807
S2140057E00A2383F8122383F80B2383F8132383F802
S2140057F0192383F81B2383F81E1383F818234022EB
S21400580083F8011383F8041383F8051383F806134B
S21400581083F8071383F8081383F81C1383F81D1303
S21400582083F8222C704700BF00E100E00B4B10B558
S2140058300446186868B9631C0DD0094B1B7B53B926
S214005840012C09D9074B5B681C442046FFF78CFFE8
S21400585001E0002010BD204610BD00BF60290020DA
S214005860181D002000400440F8B5FDF723F8044654
S214005870FBF754FF012804D80220FBF725FF00267B
S2140058801FE01C4A1C4D536B516BC3F3031301F00E
S2140058900F0135F8130035F811301849034408682D
S2140058A010F440709BB219D1D233184480B234F051
S2140058B081FC134B4FF08042C3F880210646002837
S2140058C0DAD0104F7D68FBF7C7FE7B685D1B33F0B0
